:020000040800F2
:100000000000012001170008C9140008D1140008DD
:10001000D9140008E1140008E914000800000000E9
:10002000000000000000000000000000F1140008C3
:10003000FF140008000000000D1500081B15000843
:1000400051170008511700085117000851170008F0
:1000500051170008511700085117000851170008E0
:1000600051170008511700085117000851170008D0
:1000700051170008511700085117000851170008C0
:10008000511700085117000829150008000000004A
:1000900000000000000000000000000051170008F0
:1000A0005117000851170008511700085117000890
:1000B0003D15000851170008511700085117000896
:1000C0005117000851170008511700085117000870
:1000D00051170008511700085117000800000000D0
:1000E00051170008511700085117000800000000C0
:1000F0000000000000000000000000005117000890
:10010000000000005117000851170008511700089F
:1001100000000000000000000000000000000000DF
:10012000511700085117000851170008511700080F
:10013000511700080000000000000000000000004F
:10014000000000000000000000000000511700083F
:1001500051170008511700085117000851170008DF
:1001600051170008511700080000000000000000AF
:10017000000000000000000000000000000000007F
:1001800000000000511700080000000000000000FF
:0401900051170008FB
:1001A00010B5054C237833B9044B13B10448AFF3B1
:1001B00000800123237010BDD40100200000000046
:1001C0003487000808B5034B1BB103490348AFF35C
:1001D000008008BD00000000D8010020348700081E
:1001E00001F0FF01102A2BDB10F0070F08D010F8E8
:1001F000013B013A8B422DD010F0070F42B3F6D1EC
:10020000F0B441EA012141EA014122F007047FF004
:1002100000070023F0E80256083C85EA010586EA5B
:10022000010685FA47F5A3FA87F586FA47F6A5FA97
:1002300087F68EB9EED1F0BC01F0FF0102F00702A3
:1002400032B110F8013B013A83EA010313B1F8D14E
:100250000020704701387047002D06BF354603382F
:10026000073815F0010F07D1013015F4807F02BF68
:10027000013015F4C03F0130F0BC0138704700BFB9
:10028000034613F8012B002AFBD1181A01387047D6
:1002900081F0004102E000BF83F0004330B54FEA37
:1002A00041044FEA430594EA050F08BF90EA020FA4
:1002B0001FBF54EA000C55EA020C7FEA645C7FEA37
:1002C000655C00F0E2804FEA5454D4EB5555B8BF5A
:1002D0006D420CDD2C4480EA020281EA030382EACB
:1002E000000083EA010180EA020281EA0303362D5D
:1002F00088BF30BD11F0004F4FEA01314FF4801C30
:100300004CEA113102D0404261EB410113F0004F41
:100310004FEA03334CEA133302D0524263EB4303F8
:1003200094EA050F00F0A780A4F10104D5F1200E96
:100330000DDB02FA0EFC22FA05F2801841F10001F1
:1003400003FA0EF2801843FA05F359410EE0A5F1C5
:1003500020050EF1200E012A03FA0EFC28BF4CF0F6
:10036000020C43FA05F3C01851EBE37101F00045AC
:1003700007D54FF0000EDCF1000C7EEB00006EEBB9
:100380000101B1F5801F1BD3B1F5001F0CD3490843
:100390005FEA30004FEA3C0C04F101044FEA44529A
:1003A00012F5800F80F09A80BCF1004F08BF5FEA21
:1003B000500C50F1000041EB045141EA050130BD01
:1003C0005FEA4C0C404141EB0101013C28BFB1F513
:1003D000801FE9D291F0000F04BF01460020B1FA5E
:1003E00081F308BF2033A3F10B03B3F120020CDA31
:1003F0000C3208DD02F1140CC2F10C0201FA0CF00F
:1004000021FA02F10CE002F11402D8BFC2F1200C73
:1004100001FA02F120FA0CFCDCBF41EA0C01904029
:10042000E41AA2BF01EB0451294330BD6FEA040472
:100430001F3C1CDA0C340EDC04F11404C4F120025D
:1004400020FA04F001FA02F340EA030021FA04F36F
:1004500045EA030130BDC4F10C04C4F1200220FAC6
:1004600002F001FA04F340EA0300294630BD21FA04
:1004700004F0294630BD94F0000F83F4801306BFCA
:1004800081F480110134013D4EE77FEA645C18BFBE
:100490007FEA655C29D094EA050F08BF90EA020F55
:1004A00005D054EA000C04BF1946104630BD91EA4D
:1004B000030F1EBF0021002030BD5FEA545C05D150
:1004C0004000494128BF41F0004130BD14F580048F
:1004D0003CBF01F5801130BD01F0004545F0FE4103
:1004E00041F470014FF0000030BD7FEA645C1ABF38
:1004F000194610467FEA655C1CBF0B46024650EA6F
:10050000013406BF52EA033591EA030F41F400219A
:1005100030BD00BF90F0000F04BF0021704730B520
:100520004FF4806404F132044FF000054FF00001F5
:1005300050E700BF90F0000F04BF0021704730B5B6
:100540004FF4806404F1320410F0004548BF40428B
:100550004FF000013EE700BF42004FEAE2014FEAE0
:1005600031014FEA02701FBF12F07F4393F07F4FBB
:1005700081F06051704732F07F4208BF704793F0BE
:100580007F4F04BF41F40021704730B54FF46074D1
:1005900001F0004521F000411CE700BF50EA0102D4
:1005A00008BF704730B54FF000050AE050EA01027D
:1005B00008BF704730B511F0004502D5404261EBED
:1005C00041014FF4806404F132045FEA915C3FF42E
:1005D000D8AE4FF003025FEADC0C18BF03325FEACB
:1005E000DC0C18BF033202EBDC02C2F1200300FA7C
:1005F00003FC20FA02F001FA03FE40EA0E0021FAA1
:1006000002F11444BDE600BF70B54FF0FF0C4CF48E
:10061000E06C1CEA11541DBF1CEA135594EA0C0F40
:1006200095EA0C0F00F0DEF82C4481EA030621EA7B
:100630004C5123EA4C5350EA013518BF52EA0335B6
:1006400041F4801143F4801338D0A0FB02CE4FF068
:100650000005E1FB02E506F00042E0FB03E54FF098
:100660000006E1FB03569CF0000F18BF4EF0010E90
:10067000A4F1FF04B6F5007F64F5407404D25FEA8C
:100680004E0E6D4146EB060642EAC62141EA55513F
:100690004FEAC52040EA5E504FEACE2EB4F1FD0C81
:1006A00088BFBCF5E06F1ED8BEF1004F08BF5FEAFF
:1006B000500E50F1000041EB045170BD06F00046B1
:1006C00046EA010140EA020081EA0301B4EB5C045E
:1006D000C2BFD4EB0C0541EA045170BD41F4801156
:1006E0004FF0000E013C00F3AB8014F1360FDEBF7B
:1006F000002001F0004170BDC4F10004203C35DA57
:100700000C341BDC04F11404C4F1200500FA05F3D9
:1007100020FA04F001FA05F240EA020001F000427A
:1007200021F0004110EBD37021FA04F642EB0601F0
:100730005EEA430E08BF20EAD37070BDC4F10C041A
:10074000C4F1200500FA04F320FA05F001FA04F2DE
:1007500040EA020001F0004110EBD37041F10001CA
:100760005EEA430E08BF20EAD37070BDC4F12005D5
:1007700000FA05F24EEA020E20FA04F301FA05F23D
:1007800043EA020321FA04F001F0004121FA04F2E5
:1007900020EA020000EBD3705EEA430E08BF20EAB5
:1007A000D37070BD94F0000F0FD101F000464000EF
:1007B00041EB010111F4801F08BF013CF7D041EA71
:1007C000060195F0000F18BF704703F00046520075
:1007D00043EB030313F4801F08BF013DF7D043EA46
:1007E0000603704794EA0C0F0CEA135518BF95EAFC
:1007F0000C0F0CD050EA410618BF52EA4306D1D183
:1008000081EA030101F000414FF0000070BD50EAA1
:10081000410606BF1046194652EA430619D094EA2B
:100820000C0F02D150EA013613D195EA0C0F05D115
:1008300052EA03361CBF104619460AD181EA030169
:1008400001F0004141F0FE4141F470014FF0000021
:1008500070BD41F0FE4141F4780170BD70B54FF0BC
:10086000FF0C4CF4E06C1CEA11541DBF1CEA13553C
:1008700094EA0C0F95EA0C0F00F0A7F8A4EB05041E
:1008800081EA030E52EA03354FEA013100F0888015
:100890004FEA03334FF0805545EA131343EA1263DE
:1008A0004FEA022245EA111545EA10654FEA002693
:1008B0000EF000419D4208BF964244F1FD0404F54C
:1008C000407402D25B084FEA3202B61A65EB0305A8
:1008D0005B084FEA32024FF480104FF4002CB6EB65
:1008E000020E75EB030E22BFB61A754640EA0C00E5
:1008F0005B084FEA3202B6EB020E75EB030E22BF25
:10090000B61A754640EA5C005B084FEA3202B6EB65
:10091000020E75EB030E22BFB61A754640EA9C0024
:100920005B084FEA3202B6EB020E75EB030E22BFF4
:10093000B61A754640EADC0055EA060E18D04FEAB2
:10094000051545EA16754FEA06164FEAC30343EA52
:1009500052734FEAC2025FEA1C1CC0D111F4801F1F
:100960000BD141EA00014FF000004FF0004CB6E718
:1009700011F4801F04BF01430020B4F1FD0C88BFB7
:10098000BCF5E06F3FF6AFAEB5EB030C04BFB6EBC2
:10099000020C5FEA500C50F1000041EB045170BDB5
:1009A0000EF0004E4EEA113114EB5C04C2BFD4EBE2
:1009B0000C0541EA045170BD41F480114FF0000E66
:1009C000013C90E645EA060E8DE60CEA135594EAE2
:1009D0000C0F08BF95EA0C0F3FF43BAF94EA0C0FE5
:1009E0000AD150EA01347FF434AF95EA0C0F7FF45A
:1009F00025AF104619462CE795EA0C0F06D152EAAE
:100A000003353FF4FDAE1046194622E750EA410691
:100A100018BF52EA43067FF4C5AE50EA41047FF4A2
:100A20000DAF52EA43057FF4EBAE12E74FF0FF3C07
:100A300006E000BF4FF0010C02E000BF4FF0010CD8
:100A40004DF804CD4FEA410C7FEA6C5C4FEA430C51
:100A500018BF7FEA6C5C1BD001B050EA410C0CBFA0
:100A600052EA430C91EA030F02BF90EA020F002002
:100A7000704710F1000F91EA030F58BF994208BF69
:100A800090422CBFD8176FEAE37040F00100704726
:100A90004FEA410C7FEA6C5C02D150EA013C07D17D
:100AA0004FEA430C7FEA6C5CD6D152EA033CD3D0C8
:100AB0005DF8040B704700BF8446104662468C46C2
:100AC0001946634600E000BF01B5FFF7B7FF0028F5
:100AD00048BF10F1000F01BD4DF808EDFFF7F4FF1E
:100AE0000CBF012000205DF808FB00BF4DF808EDA9
:100AF000FFF7EAFF34BF012000205DF808FB00BFCC
:100B00004DF808EDFFF7E0FF94BF012000205DF8ED
:100B100008FB00BF4DF808EDFFF7CEFF94BF0120A2
:100B200000205DF808FB00BF4DF808EDFFF7C4FF9B
:100B300034BF012000205DF808FB00BF4FEA410CE4
:100B40007FEA6C5C02D150EA013C0AD14FEA430CC7
:100B50007FEA6C5C02D152EA033C02D14FF0000004
:100B600070474FF0010070474FEA410212F5001242
:100B700015D211D56FF47873B3EB625212D94FEAE4
:100B8000C12343F0004343EA505311F0004F23FACE
:100B900002F018BF404270474FF00000704750EA23
:100BA000013005D111F0004008BF6FF000407047E0
:100BB0004FF00000704700BF4A0011D212F500123A
:100BC00011D20DD56FF47873B3EB62520ED44FEAA5
:100BD000C12343F0004343EA505323FA02F0704725
:100BE0004FF00000704750EA013002D14FF0FF3063
:100BF00070474FF0000070474FEA4102B2F1E04306
:100C000024BFB3F5001CDCF1FE5C0DD901F0004CF3
:100C10004FEAC0024CEA5070B2F1004F40EB830043
:100C200008BF20F00100704711F0804F21D113F16F
:100C30003872BCBF01F00040704741F480114FEAA8
:100C40005252C2F11802C2F1200C10FA0CF320FA31
:100C500002F018BF40F001004FEAC1234FEAD3234E
:100C600003FA0CFC40EA0C0023FA02F34FEA4303B8
:100C7000CCE77FEA625307D150EA01331EBF4FF041
:100C8000FE4040F44000704701F0004040F0FE405C
:100C900040F40000704700BF53B94AB9002908BFAB
:100CA00000281CBF4FF0FF314FF0FF3000F0A0B91B
:100CB000ADF1080C6DE904CE00F03CF8DDF804E07D
:100CC000DDE9022304B0704738B500220023044652
:100CD0000D46FFF70BFF28B920462946BDE83840EE
:100CE00000F00AB8204605F1004100F005F8404246
:100CF00061EB410138BD00BFD0B50C4B0022064668
:100D00000F46FFF781FCFFF757FF0446FFF702FC91
:100D1000074B0022FFF778FC02460B463046394667
:100D2000FFF7BAFAFFF748FF2146D0BD0000F03DBB
:100D30000000F0412DE9F047089D0C46002B4ED1F4
:100D400094468C458646B2FA82F262D94AB1C2F123
:100D50002003914020FA03F30CFA02FC194300FA35
:100D600002FE4FEA1C471FFA8CF6B1FBF7F44FEA7C
:100D70001E4307FB141143EA014304FB06F19942A9
:100D80000AD91CEB030304F1FF3080F01281994271
:100D900040F20F81023C6344591A1FFA8EF3B1FBF3
:100DA000F7F007FB101143EA014300FB06F69E42F1
:100DB0000AD91CEB030300F1FF3180F0FC809E4256
:100DC00040F2F980634402389B1B40EA0440002152
:100DD0001DB1D3400022C5E90032BDE8F0878B4247
:100DE00005D90DB1C5E9000100210846F5E7B3FAC0
:100DF00083F1002946D1A34202D39042C0F0F08093
:100E0000861A64EB03030120002DE6D0C5E90063D8
:100E1000E3E7002A40F09080A1EB0C044FEA1C4865
:100E20001FFA8CF70121B4FBF8F64FEA1E4308FBCA
:100E3000164443EA044307FB06F0984208D91CEB2A
:100E4000030306F1FF3402D2984200F2CD80264619
:100E50001C1A1FFA8EF3B4FBF8F008FB104443EAA7
:100E6000044300FB07F79F4208D91CEB030300F182
:100E7000FF3402D29F4200F2B0802046DB1B40EAE2
:100E80000640A5E7C1F120068B4022FA06F71F4372
:100E900020FA06FC04FA01F343EA0C03F44000FADA
:100EA00001F8380C4FEA1349B4FBF0FE1FFA87FC37
:100EB00000FB1E4449EA04440EFB0CF9A14502FA6A
:100EC00001F20AD93C190EF1FF3A80F08480A14565
:100ED00040F28180AEF1020E3C44A4EB09041FFAFB
:100EE00083F9B4FBF0F300FB134449EA044403FB29
:100EF0000CFCA44507D93C1903F1FF3067D2A44587
:100F000065D9023B3C4443EA0E40A0FB0293A4EBAC
:100F10000C049C42CE469C4651D34ED055B1B8EB02
:100F20000E0364EB0C0404FA06F6CB401E43CC40DF
:100F3000C5E90064002150E7C2F1200320FA03F163
:100F40000CFA02FC24FA03F394400C434FEA1C48C9
:100F500000FA02FE1FFA8CF7B3FBF8F008FB103121
:100F6000230C43EA014300FB07F1994208D91CEB2B
:100F7000030300F1FF362CD299422AD90238634488
:100F80005B1AA4B2B3FBF8F108FB113344EA034443
:100F900001FB07F3A34208D91CEB040401F1FF365F
:100FA00013D2A34211D902396444E41A41EA004140
:100FB00039E70446F0E6084606E7C845AED2B9EB85
:100FC000020E63EB070C0138A8E73146EDE7034654
:100FD00099E73046D4E7D6467FE7634402384DE7C9
:100FE0000646234608460FE7023E634430E700BF4B
:100FF000704700BF80B586B000AF00F0ABFB00F0DB
:1010000039F800F05FF900F095F800F0E5F800F02D
:101010002FF900237B61144800F076FC642112480C
:1010200000F059FD0346002B03D10F4800F0EEFEFF
:1010300078610D4800F01CFD3B467A690B49184663
:1010400003F040FF3B461846FFF71AF903469AB2F1
:1010500039464FF0FF33064802F04AFC4FF4FA706D
:1010600000F0EAFBD7E700BFF0010020508700083E
:101070008002002080B594B000AF07F12003302239
:101080000021184603F081FF07F10C0300221A60CB
:101090005A609A60DA601A610023BB60234B1B6CB4
:1010A000224A43F080531364204B1B6C03F080539F
:1010B000BB60BB6800237B601D4B1B6823F440436F
:1010C0001B4A43F400431360194B1B6803F440436D
:1010D0007B607B6802233B620123FB6210233B633E
:1010E0000023BB6307F12003184601F079FB034698
:1010F000002B01D000F000F90F23FB6000233B61BF
:1011000000237B610023BB610023FB6107F10C031B
:101110000021184601F0DCFD0346002B01D000F051
:10112000EBF800BF5037BD4680BD00BF003802401D
:101130000070004080B584B000AF3B4600221A60CA
:101140005A609A60DA60214B214A1A601F4B0022D4
:101150005A601E4B00229A601C4B00221A611B4BE6
:1011600001221A76194B002283F82020174B002207
:10117000DA62164B174A9A62144B0022DA60134B5C
:101180000122DA61114B002283F830200F4B01223B
:101190005A610E4800F074FB0346002B01D000F0AA
:1011A000ABF800233B6001237B600023BB603B4620
:1011B0001946064800F056FE0346002B01D000F009
:1011C0009BF800BF1037BD4680BD00BFF001002076
:1011D000002001400100000F80B586B000AF07F18C
:1011E000080300221A605A609A60DA603B460022C7
:1011F0001A605A601D4B4FF080421A601B4B002250
:101200005A601A4B00229A60184B4FF6FF72DA6050
:10121000164B00221A61154B80229A61134801F087
:1012200037FF0346002B01D000F066F84FF48053DF
:10123000BB6007F1080319460C4802F068F8034642
:10124000002B01D000F058F800233B6000237B60A6
:101250003B461946054802F079FA0346002B01D0B7
:1012600000F04AF800BF1837BD4680BD38020020A4
:1012700080B500AF114B124A1A60104B4FF4E132A7
:101280005A600E4B00229A600C4B0022DA600B4B26
:1012900000221A61094B0C225A61084B00229A6104
:1012A000064B0022DA61054802F0D2FA0346002B11
:1012B00001D000F021F800BF80BD00BF80020020F7
:1012C0000010014080B483B000AF00237B60094B65
:1012D0001B6B084A43F001031363064B1B6B03F0BF
:1012E00001037B607B6800BF0C37BD465DF8047B63
:1012F000704700BF0038024080B400AF72B600BF34
:1013000000BFFDE780B483B000AF00237B60104BCB
:101310005B6C0F4A43F4804353640D4B5B6C03F4E6
:1013200080437B607B6800233B60094B1B6C084A51
:1013300043F080531364064B1B6C03F080533B60F7
:101340003B6800BF0C37BD465DF8047B704700BFAB
:101350000038024080B58AB000AF786007F114030E
:1013600000221A605A609A60DA601A617B681B6812
:101370001B4A93422FD100233B611A4B5B6C194AE5
:1013800043F480735364174B5B6C03F480733B61CD
:101390003B690023FB60134B1B6B124A43F00103B4
:1013A0001363104B1B6B03F00103FB60FB6801230D
:1013B0007B610323BB610023FB6107F11403194622
:1013C000094801F089F800220021122001F04DF8AF
:1013D000122001F066F800BF2837BD4680BD00BF6F
:1013E00000200140003802400000024080B584B077
:1013F00000AF78607B681B68B3F1804F15D1002384
:10140000FB600C4B1B6C0B4A43F001031364094B4C
:101410001B6C03F00103FB60FB68002200211C2011
:1014200001F023F81C2001F03CF800BF1037BD4646
:1014300080BD00BF0038024080B58AB000AF786040
:1014400007F1140300221A605A609A60DA601A6188
:101450007B681B68194A93422CD100233B61184BCF
:101460005B6C174A43F010035364154B5B6C03F03D
:1014700010033B613B690023FB60114B1B6B104A5F
:1014800043F0010313630E4B1B6B03F00103FB607E
:10149000FB684FF4C0637B610223BB610023FB61E7
:1014A00003233B6207237B6207F1140319460548B7
:1014B00001F012F800BF2837BD4680BD0010014082
:1014C000003802400000024080B400AF00BFFDE7DA
:1014D00080B400AF00BFFDE780B400AF00BFFDE700
:1014E00080B400AF00BFFDE780B400AF00BFFDE7F0
:1014F00080B400AF00BFBD465DF8047B704780B488
:1015000000AF00BFBD465DF8047B704780B400AFFC
:1015100000BFBD465DF8047B704780B500AF00F0AA
:101520006BF900BF80BD000080B500AF024800F03D
:101530005DFB00BF80BD00BFF001002080B500AFA3
:10154000024801F0F4FD00BF80BD00BF380200205A
:1015500080B400AF01231846BD465DF8047B704798
:1015600080B582B000AF7860396003F061FD03465A
:1015700016221A604FF0FF3318460837BD4680BD6B
:1015800080B582B000AF78604FF0FF317868FFF728
:10159000E7FF00BFFDE780B586B000AFF860B96037
:1015A0007A6000237B610AE0AFF300800146BB68EC
:1015B0005A1CBA60CAB21A707B6901337B617A69BE
:1015C0007B689A42F0DB7B6818461837BD4680BDC1
:1015D00080B586B000AFF860B9607A6000237B61A7
:1015E00009E0BB685A1CBA601B781846AFF300804C
:1015F0007B6901337B617A697B689A42F1DB7B68A6
:1016000018461837BD4680BD80B483B000AF7860FF
:101610004FF0FF3318460C37BD465DF8047B70472A
:1016200080B483B000AF786039603B684FF40052FB
:101630005A60002318460C37BD465DF8047B70479E
:1016400080B483B000AF7860012318460C37BD46E4
:101650005DF8047B704780B485B000AFF860B96076
:101660007A60002318461437BD465DF8047B704746
:1016700080B586B000AF7860144A154BD31A7B61F1
:101680007B693B61134B1B68002B02D1114B124A43
:101690001A60104B1A687B6813443A699A4207D261
:1016A00003F0C6FC03460C221A604FF0FF3309E03A
:1016B000084B1B68FB60074B1A687B681344054A9C
:1016C0001360FB6818461837BD4680BD0000012036
:1016D00000040000C80200202004002080B400AFF5
:1016E000064BD3F88830054A43F47003C2F88830BB
:1016F00000BFBD465DF8047B704700BF00ED00E011
:10170000DFF834D0FFF7EAFF0C480D490D4A0023FB
:1017100002E0D458C4500433C4188C42F9D30A4AA6
:101720000A4C002301E013600432A242FBD303F011
:1017300085FCFFF75FFC70470000012000000020DF
:10174000D4010020B88B0008D40100201C04002024
:10175000FEE7000080B500AF0E4B1B680D4A43F456
:10176000007313600B4B1B680A4A43F480631360D9
:10177000084B1B68074A43F480731360032000F092
:1017800069FE0F2000F008F8FFF7BCFD00231846A3
:1017900080BD00BF003C024080B582B000AF7860E1
:1017A000124B1A68124B1B7819464FF47A73B3FB2D
:1017B000F1F3B2FBF3F3184600F081FE0346002B71
:1017C00001D001230EE07B680F2B0AD80022796834
:1017D0004FF0FF3000F049FE064A7B68136000239B
:1017E00000E0012318460837BD4680BD00000020F8
:1017F000080000200400002080B400AF064B1B78D6
:101800001A46064B1B681344044A136000BFBD46CA
:101810005DF8047B704700BF08000020CC02002068
:1018200080B400AF034B1B681846BD465DF8047BCF
:10183000704700BFCC02002080B584B000AF786054
:10184000FFF7EEFFB8607B68FB60FB68B3F1FF3F1A
:1018500005D00A4B1B781A46FB681344FB6000BF97
:10186000FFF7DEFF0246BB68D31AFA689A42F7D840
:1018700000BF00BF1037BD4680BD00BF080000207C
:1018800080B584B000AF78600023FB737B68002BC9
:1018900001D1012333E07B681B6C002B09D17868F0
:1018A000FFF758FD7B6800225A647B68002283F8AA
:1018B0003C207B681B6C03F01003002B18D17B6865
:1018C0001B6C23F4885323F0020343F002027B686D
:1018D0001A64786800F0E8FB7B6800225A647B6831
:1018E0001B6C23F0030343F001027B681A6401E0E0
:1018F0000123FB737B68002283F83C20FB7B1846A6
:101900001037BD4680BD000080B485B000AF786060
:101910000023BB607B6893F83C30012B01D102238C
:1019200097E07B68012283F83C207B681B689B68FA
:1019300003F00103012B18D07B681B689A687B6851
:101940001B6842F001029A60454B1B68454AA2FBA6
:1019500003239A0C13465B001344BB6002E0BB6890
:10196000013BBB60BB68002BF9D17B681B689B689F
:1019700003F00103012B5FD17B681B6C23F4E06350
:1019800023F0010343F480727B681A647B681B6850
:101990005B6803F48063002B07D07B681B6C23F427
:1019A000405343F480527B681A647B681B6C03F4D9
:1019B0008053B3F5805F06D17B685B6C23F0060231
:1019C0007B685A6402E07B6800225A647B680022CC
:1019D00083F83C20244BFB607B681B686FF022027D
:1019E0001A60FB685B6803F01F03002B0FD17B6854
:1019F0001B689B6803F04053002B29D17B681B6850
:101A00009A687B681B6842F080429A6020E07B689D
:101A10001B68164A93421BD17B681B689B6803F0C6
:101A20004053002B14D17B681B689A687B681B6845
:101A300042F080429A600BE07B681B6C43F010021E
:101A40007B681A647B685B6C43F001027B685A64B4
:101A5000002318461437BD465DF8047B704700BF6D
:101A60000000002083DE1B430023014000200140D2
:101A700080B483B000AF78607B6893F83C30012B72
:101A800001D1022321E07B68012283F83C207B689E
:101A90001B689A687B681B6822F001029A607B6869
:101AA0001B689B6803F00103002B09D17B681B6C4A
:101AB00023F4885323F0010343F001027B681A6486
:101AC0007B68002283F83C20002318460C37BD4673
:101AD0005DF8047B704780B584B000AF78603960F2
:101AE0000023FB607B681B689B6803F48063B3F58D
:101AF000806F13D17B681B689B6803F48073B3F518
:101B0000807F0BD17B681B6C43F020027B681A64DA
:101B10007B68002283F83C20012363E0FFF780FE0E
:101B2000F86021E03B68B3F1FF3F1DD03B68002B1C
:101B300007D0FFF775FE0246FB68D31A3A689A424F
:101B400012D27B681B681B6803F00203022B0BD0C8
:101B50007B681B6C43F004027B681A647B6800227C
:101B600083F83C2003233DE07B681B681B6803F07F
:101B70000203022BD6D17B681B686FF012021A6039
:101B80007B681B6C43F400727B681A647B681B687B
:101B90009B6803F04053002B23D17B681B7E002BF6
:101BA0001FD17B681B68DB6A03F47003002B06D02F
:101BB0007B681B689B6803F48063002B11D17B68F2
:101BC0001B6C23F480727B681A647B681B6C03F4C3
:101BD0008053002B05D17B681B6C43F001027B68AE
:101BE0001A64002318461037BD4680BD80B586B004
:101BF00000AF786000237B6100233B617B681B683A
:101C00001B68FB607B681B685B68BB60FB6803F05C
:101C100002037B61BB6803F020033B617B69002BFF
:101C200049D03B69002B46D07B681B6C03F0100346
:101C3000002B05D17B681B6C43F400727B681A642F
:101C40007B681B689B6803F04053002B2BD17B689B
:101C50001B7E002B27D17B681B68DB6A03F47003B3
:101C6000002B06D07B681B689B6803F48063002B05
:101C700019D17B681B685A687B681B6822F02002B8
:101C80005A607B681B6C23F480727B681A647B68E3
:101C90001B6C03F48053002B05D17B681B6C43F055
:101CA00001027B681A64786800F0BDF87B681B68E5
:101CB0006FF012021A60FB6803F004037B61BB68DB
:101CC00003F080033B617B69002B57D03B69002BFD
:101CD00054D07B681B6C03F01003002B05D17B688C
:101CE0001B6C43F400527B681A647B681B689B681A
:101CF00003F44013002B39D17B681B689B6B03F402
:101D00004013002B06D07B681B689B6803F480633C
:101D1000002B2BD17B681B685B6803F48063002B6E
:101D200024D17B681B689B6803F04053002B1DD1B6
:101D30007B681B7E002B19D17B681B685A687B6807
:101D40001B6822F080025A607B681B6C23F480526F
:101D50007B681A647B681B6C03F48073002B05D1CD
:101D60007B681B6C43F001027B681A64786800F0A2
:101D700097FA7B681B686FF00C021A60FB6803F02F
:101D800001037B61BB6803F040033B617B69002B6F
:101D900017D03B69002B14D07B681B681B6803F0CD
:101DA0000103012B0DD17B681B6C43F480327B68EF
:101DB0001A64786800F041F87B681B686FF00102D4
:101DC0001A60FB6803F020037B61BB6803F080634B
:101DD0003B617B69002B15D03B69002B12D07B68DF
:101DE0005B6C43F002027B685A647B681B686FF08F
:101DF00020021A60786800F02AF87B681B686FF090
:101E000020021A6000BF1837BD4680BD80B483B081
:101E100000AF78607B681B68DB6C18460C37BD46EA
:101E20005DF8047B704780B483B000AF786000BF7A
:101E30000C37BD465DF8047B704780B483B000AFBB
:101E4000786000BF0C37BD465DF8047B704780B4F6
:101E500083B000AF786000BF0C37BD465DF8047BEF
:101E60007047000080B485B000AF7860396000230F
:101E7000BB607B6893F83C30012B01D1022305E164
:101E80007B68012283F83C203B681B68092B25D91D
:101E90007B681B68D9683B681B689BB21A4613466F
:101EA0005B0013441E3B072202FA03F3DA437B680C
:101EB0001B680A40DA607B681B68D9683B689A68CF
:101EC0003B681B689BB2184603465B0003441E3BFD
:101ED0009A407B681B680A43DA6022E07B681B68D3
:101EE00019693B681B689BB21A4613465B00134492
:101EF000072202FA03F3DA437B681B680A401A617F
:101F00007B681B6819693B689A683B681B689BB2D1
:101F1000184603465B0003449A407B681B680A43EB
:101F20001A613B685B68062B24D87B681B68596B79
:101F30003B685A6813469B001344053B1F2202FA74
:101F400003F3DA437B681B680A405A637B681B68AB
:101F5000596B3B681B689BB218463B685A6813462E
:101F60009B001344053B00FA03F27B681B680A439D
:101F70005A634CE03B685B680C2B24D87B681B6879
:101F8000196B3B685A6813469B001344233B1F227E
:101F900002FA03F3DA437B681B680A401A637B6822
:101FA0001B68196B3B681B689BB218463B685A68F4
:101FB00013469B001344233B00FA03F27B681B6823
:101FC0000A431A6323E07B681B68D96A3B685A6836
:101FD00013469B001344413B1F2202FA03F3DA43EA
:101FE0007B681B680A40DA627B681B68D96A3B68B9
:101FF0001B689BB218463B685A6813469B00134403
:10200000413B00FA03F27B681B680A43DA62224B09
:10201000FB607B681B68214A934209D13B681B68BF
:10202000122B05D1FB685B6843F48002FB685A60A1
:102030007B681B68194A934223D13B681B68102BAD
:1020400003D03B681B68112B1BD1FB685B6843F412
:102050000002FB685A603B681B68102B11D1104BC3
:102060001B68104AA2FB03239A0C13469B001344DF
:102070005B00BB6002E0BB68013BBB60BB68002B40
:10208000F9D17B68002283F83C20002318461437DE
:10209000BD465DF8047B70470023014000200140ED
:1020A0000000002083DE1B4380B485B000AF786061
:1020B000794BFB60FB685B6823F44032FB685A6035
:1020C000FB685A687B685B681A43FB685A607B68E8
:1020D0001B685A687B681B6822F480725A607B68B0
:1020E0001B6859687B681B691A027B681B680A4376
:1020F0005A607B681B685A687B681B6822F04072D4
:102100005A607B681B6859687B689A687B681B68A3
:102110000A435A607B681B689A687B681B6822F4D4
:1021200000629A607B681B6899687B68DA687B68E4
:102130001B680A439A607B689B6A584A934222D084
:102140007B681B689A687B681B6822F070629A60E3
:102150007B681B6899687B689A6A7B681B680A437E
:102160009A607B681B689A687B681B6822F0405203
:102170009A607B681B6899687B68DA6A7B681B6871
:102180000A439A600FE07B681B689A687B681B684B
:1021900022F070629A607B681B689A687B681B6893
:1021A00022F040529A607B681B689A687B681B68C3
:1021B00022F002029A607B681B6899687B681B7E2C
:1021C0005A007B681B680A439A607B6893F820304A
:1021D000002B1BD07B681B685A687B681B6842F425
:1021E00000625A607B681B685A687B681B6822F42F
:1021F00060425A607B681B6859687B685B6A013B78
:102200005A037B681B680A435A6007E07B681B68B7
:102210005A687B681B6822F400625A607B681B68FE
:10222000DA6A7B681B6822F47002DA627B681B68DA
:10223000D96A7B68DB69013B1A057B681B680A4326
:10224000DA627B681B689A687B681B6822F40072FC
:102250009A607B681B6899687B6893F830305A02F3
:102260007B681B680A439A607B681B689A687B6876
:102270001B6822F480629A607B681B6899687B689F
:102280005B699A027B681B680A439A6000BF143737
:10229000BD465DF8047B7047002301400100000F3C
:1022A00080B483B000AF786000BF0C37BD465DF8E6
:1022B000047B704780B485B000AF78607B6803F022
:1022C0000703FB600C4BDB68BB60BA684FF6FF038B
:1022D0001340BB60FB681A02BB68134343F0BF6343
:1022E00043F40033BB60044ABB68D36000BF1437BB
:1022F000BD465DF8047B704700ED00E080B400AFA0
:10230000044BDB681B0A03F007031846BD465DF863
:10231000047B704700ED00E080B483B000AF03465B
:10232000FB7197F90730002B0BDBFB7903F01F02E1
:10233000074997F907305B09012000FA02F241F8DA
:10234000232000BF0C37BD465DF8047B704700BFFB
:1023500000E100E080B483B000AF03463960FB7158
:1023600097F90730002B0ADB3B68DAB20C4997F982
:1023700007301201D2B20B4483F800230AE03B6815
:10238000DAB20849FB7903F00F03043B1201D2B221
:102390000B441A7600BF0C37BD465DF8047B7047CE
:1023A00000E100E000ED00E080B489B000AFF8602B
:1023B000B9607A60FB6803F00703FB61FB69C3F156
:1023C0000703042B28BF0423BB61FB690433062BDE
:1023D00002D9FB69033B00E000237B614FF0FF3231
:1023E000BB6902FA03F3DA43BB681A407B699A407F
:1023F0004FF0FF317B6901FA03F3D9437B680B404F
:10240000134318462437BD465DF8047B704700002F
:1024100080B582B000AF78607B68013BB3F1807F0C
:1024200001D301230FE00A4A7B68013B53600F216F
:102430004FF0FF30FFF78EFF054B00229A60044BF0
:1024400007221A60002318460837BD4680BD00BF2A
:1024500010E000E080B582B000AF78607868FFF7E8
:1024600029FF00BF0837BD4680BD80B586B000AFEC
:102470000346B9607A60FB7300237B61FFF73EFF80
:1024800078617A68B9687869FFF78EFF024697F934
:102490000F3011461846FFF75DFF00BF1837BD46E5
:1024A00080BD80B582B000AF0346FB7197F907305D
:1024B0001846FFF731FF00BF0837BD4680BD80B525
:1024C00082B000AF78607868FFF7A2FF0346184635
:1024D0000837BD4680BD000080B489B000AF786089
:1024E000396000237B6100233B610023BB61002333
:1024F000FB6159E10122FB6902FA03F37B613B684E
:102500001B687A6913403B613A697B699A4240F0E3
:1025100048813B685B6803F00303012B05D03B68EF
:102520005B6803F00303022B30D17B689B68BB61BF
:10253000FB695B00032202FA03F3DB43BA69134031
:10254000BB613B68DA68FB695B0002FA03F3BA69B6
:102550001343BB617B68BA699A607B685B68BB6147
:102560000122FB6902FA03F3DB43BA691340BB6142
:102570003B685B681B0903F00102FB6902FA03F385
:10258000BA691343BB617B68BA695A603B685B6890
:1025900003F00303032B17D07B68DB68BB61FB6987
:1025A0005B00032202FA03F3DB43BA691340BB6109
:1025B0003B689A68FB695B0002FA03F3BA6913434C
:1025C000BB617B68BA69DA603B685B6803F0030350
:1025D000022B23D1FB69DA087B68083253F82230DA
:1025E000BB61FB6903F007039B000F2202FA03F3B0
:1025F000DB43BA691340BB613B681A69FB6903F0AE
:1026000007039B0002FA03F3BA691343BB61FB693A
:10261000DA087B680832B96943F822107B681B68C6
:10262000BB61FB695B00032202FA03F3DB43BA6977
:102630001340BB613B685B6803F00302FB695B000E
:1026400002FA03F3BA691343BB617B68BA691A6083
:102650003B685B6803F44033002B00F0A28000234A
:10266000FB60574B5B6C564A43F480435364544BB6
:102670005B6C03F48043FB60FB68524AFB699B0878
:10268000023352F82330BB61FB6903F003039B0064
:102690000F2202FA03F3DB43BA691340BB617B6884
:1026A000494A934219D07B68484A934213D07B68C9
:1026B000474A93420DD07B68464A934207D07B68D5
:1026C000454A934201D1042308E0072306E003238F
:1026D00004E0022302E0012300E00023FA6902F093
:1026E000030292009340BA691343BB613549FB6909
:1026F0009B080233BA6941F82320384B9B68BB61C1
:102700003B69DB43BA691340BB613B685B6803F418
:102710008013002B03D0BA693B691343BB612F4A76
:10272000BB6993602D4BDB68BB613B69DB43BA69D6
:102730001340BB613B685B6803F40013002B03D0BC
:10274000BA693B691343BB61244ABB69D360234B1D
:102750005B68BB613B69DB43BA691340BB613B68A3
:102760005B6803F40033002B03D0BA693B69134361
:10277000BB611A4ABB695360184B1B68BB613B695C
:10278000DB43BA691340BB613B685B6803F4803389
:10279000002B03D0BA693B691343BB610F4ABB6985
:1027A0001360FB690133FB61FB690F2B7FF6A2AE5F
:1027B00000BF00BF2437BD465DF8047B704700BFF3
:1027C000003802400038014000000240000402408E
:1027D00000080240000C024000100240003C014092
:1027E00080B586B000AF78607B68002B01D10123F3
:1027F00067E27B681B6803F00103002B75D0884BF0
:102800009B6803F00C03042B0CD0854B9B6803F0F2
:102810000C03082B12D1824B5B6803F48003B3F5E1
:10282000800F0BD17E4B1B6803F40033002B5BD071
:102830007B685B68002B57D1012342E27B685B68B1
:10284000B3F5803F06D1764B1B68754A43F480335D
:1028500013601DE07B685B68B3F5A02F0CD1704B53
:102860001B686F4A43F4802313606D4B1B686C4AEE
:1028700043F4803313600BE0694B1B68684A23F410
:1028800080331360664B1B68654A23F48023136012
:102890007B685B68002B13D0FEF7C2FF386108E04D
:1028A000FEF7BEFF02463B69D31A642B01D903230E
:1028B00007E25B4B1B6803F40033002BF0D014E0FD
:1028C000FEF7AEFF386108E0FEF7AAFF02463B695B
:1028D000D31A642B01D90323F3E1514B1B6803F492
:1028E0000033002BF0D100E000BF7B681B6803F0D1
:1028F0000203002B63D04A4B9B6803F00C03002BB0
:102900000BD0474B9B6803F00C03082B1CD1444BA6
:102910005B6803F48003002B16D1414B1B6803F066
:102920000203002B05D07B68DB68012B01D001235B
:10293000C7E13B4B1B6823F0F8027B681B69DB0097
:10294000374913430B603AE07B68DB68002B20D0EB
:10295000344B01221A60FEF763FF386108E0FEF78E
:102960005FFF02463B69D31A022B01D90323A8E17A
:102970002B4B1B6803F00203002BF0D0284B1B6885
:1029800023F0F8027B681B69DB00254913430B60C9
:1029900015E0244B00221A60FEF742FF386108E080
:1029A000FEF73EFF02463B69D31A022B01D90323EF
:1029B00087E11B4B1B6803F00203002BF0D17B68FF
:1029C0001B6803F00803002B36D07B685B69002B83
:1029D00016D0154B01221A60FEF722FF386108E07D
:1029E000FEF71EFF02463B69D31A022B01D90323CF
:1029F00067E10B4B5B6F03F00203002BF0D01BE091
:102A0000094B00221A60FEF70BFF38610EE0FEF75B
:102A100007FF02463B69D31A022B07D9032350E173
:102A20000038024000004742800E4742884B5B6FEF
:102A300003F00203002BEAD17B681B6803F0040358
:102A4000002B00F097800023FB75814B1B6C03F07B
:102A50008053002B0FD10023BB607D4B1B6C7C4A45
:102A600043F0805313647A4B1B6C03F08053BB60BC
:102A7000BB680123FB75774B1B6803F48073002B45
:102A800018D1744B1B68734A43F480731360FEF7CC
:102A9000C7FE386108E0FEF7C3FE02463B69D31A61
:102AA000022B01D903230CE16A4B1B6803F48073EA
:102AB000002BF0D07B689B68012B06D1644B1B6F09
:102AC000634A43F0010313671CE07B689B68052B96
:102AD0000CD15F4B1B6F5E4A43F0040313675C4BE2
:102AE0001B6F5B4A43F0010313670BE0584B1B6FEE
:102AF000574A23F001031367554B1B6F544A23F0C9
:102B0000040313677B689B68002B15D0FEF788FED3
:102B100038610AE0FEF784FE02463B69D31A41F2AF
:102B20008832934201D90323CBE0494B1B6F03F05A
:102B30000203002BEED014E0FEF772FE38610AE0CB
:102B4000FEF76EFE02463B69D31A41F28832934289
:102B500001D90323B5E03E4B1B6F03F00203002BAA
:102B6000EED1FB7D012B05D1394B1B6C384A23F08C
:102B7000805313647B689B69002B00F0A180344B69
:102B80009B6803F00C03082B5CD07B689B69022BCD
:102B900041D1314B00221A60FEF742FE386108E055
:102BA000FEF73EFE02463B69D31A022B01D90323EE
:102BB00087E0274B1B6803F00073002BF0D17B6884
:102BC000DA697B681B6A1A437B685B6A9B011A435C
:102BD0007B689B6A5B08013B1B041A437B68DB6ACA
:102BE0001B061B4913434B601B4B01221A60FEF767
:102BF00017FE386108E0FEF713FE02463B69D31A60
:102C0000022B01D903235CE0114B1B6803F0007316
:102C1000002BF0D054E0104B00221A60FEF700FEAB
:102C2000386108E0FEF7FCFD02463B69D31A022B2F
:102C300001D9032345E0064B1B6803F00073002B0A
:102C4000F0D13DE07B689B69012B07D1012338E07F
:102C50000038024000700040600047421B4B5B6838
:102C6000FB607B689B69012B28D0FB6803F4800222
:102C70007B68DB699A4221D1FB6803F03F027B68E5
:102C80001B6A9A421AD1FA6847F6C07313407A68F1
:102C9000526A9201934211D1FB6803F440327B687F
:102CA0009B6A5B08013B1B049A4207D1FB6803F057
:102CB00070627B68DB6A1B069A4201D0012300E048
:102CC000002318461837BD4680BD00BF00380240BB
:102CD00080B584B000AF786039607B68002B01D18B
:102CE0000123CCE0684B1B6803F007033A689A4263
:102CF0000CD9654B3A68D2B21A70634B1B6803F06B
:102D000007033A689A4201D00123B8E07B681B6848
:102D100003F00203002B20D07B681B6803F0040340
:102D2000002B05D0594B9B68584A43F4E0539360FD
:102D30007B681B6803F00803002B05D0534B9B688E
:102D4000524A43F460439360504B9B6823F0F00277
:102D50007B689B684D4913438B607B681B6803F05D
:102D60000103002B44D07B685B68012B07D1474BE4
:102D70001B6803F40033002B19D101237FE07B682B
:102D80005B68022B03D07B685B68032B07D13F4B4A
:102D90001B6803F00073002B09D101236FE03B4B4C
:102DA0001B6803F00203002B01D1012367E0374BBE
:102DB0009B6823F003027B685B68344913438B6094
:102DC000FEF72EFDF8600AE0FEF72AFD0246FB68DA
:102DD000D31A41F28832934201D903234FE02B4B9F
:102DE0009B6803F00C027B685B689B009A42EBD106
:102DF000254B1B6803F007033A689A420CD2224B1A
:102E00003A68D2B21A70204B1B6803F007033A6885
:102E10009A4201D0012332E07B681B6803F004036F
:102E2000002B08D0194B9B6823F4E0527B68DB68C9
:102E3000164913438B607B681B6803F00803002B63
:102E400009D0124B9B6823F460427B681B69DB004E
:102E50000E4913438B6000F021F802460B4B9B6830
:102E60001B0903F00F030A49CB5C22FA03F3094A5A
:102E70001360094B1B681846FEF78EFC00231846AA
:102E80001037BD4680BD00BF003C02400038024004
:102E90006487000800000020040000202DE9B04FE6
:102EA00090B000AF00237B630023FB6300233B63F0
:102EB0000023BB63594B9B6803F00C03082B0DD018
:102EC000082B00F2A180002B02D0042B03D09BE042
:102ED000534BBB639BE0534BBB6398E04F4B5B682A
:102EE00003F03F037B634D4B5B6803F48003002BCF
:102EF00028D04A4B5B689B0900223B627A623B6A9E
:102F0000C3F308000021474B03FB01F2002300FB41
:102F100003F31344434AA0FB0212FA620A46BA6260
:102F2000FA6A1344FB627B6B0022BB61FA61D7E94A
:102F30000623D7E90A01FDF7AFFE02460B4613460A
:102F4000FB6353E0354B5B689B0900223B617A6170
:102F50003B69C3F3080A4FF0000B52465B464FF043
:102F600000004FF00001590141EAD26150010246D0
:102F70000B46B2EB0A0863EB0B094FF000024FF06F
:102F800000034FEA891343EA98634FEA8812B2EBD1
:102F9000080463EB09054FF000024FF00003EB005B
:102FA00043EA5473E20014461D4614EB0A033B60E7
:102FB00045EB0B037B604FF000024FF00003D7E9B5
:102FC000004529468B02214643EA915321468A0255
:102FD000104619467B6B0022BB60FA60D7E90223DA
:102FE000FDF75AFE02460B461346FB630B4B5B682C
:102FF0001B0C03F0030301335B003B63FA6B3B6B79
:10300000B2FBF3F3BB6302E0054BBB6300BFBB6BDA
:1030100018464037BD46BDE8B08F00BF00380240BB
:103020000024F40040787D0180B400AF034B1B689E
:103030001846BD465DF8047B704700BF00000020C5
:1030400080B500AFFFF7F0FF0246054B9B689B0A77
:1030500003F007030349CB5C22FA03F3184680BD53
:10306000003802407487000880B500AFFFF7DCFF2E
:103070000246054B9B685B0B03F007030349CB5CDF
:1030800022FA03F3184680BD003802407487000816
:1030900080B582B000AF78607B68002B01D101233E
:1030A00041E07B6893F83D30DBB2002B06D17B68B2
:1030B000002283F83C207868FEF798F97B680222AA
:1030C00083F83D207B681A687B68043319461046F4
:1030D00000F016FA7B68012283F846207B68012203
:1030E00083F83E207B68012283F83F207B68012221
:1030F00083F840207B68012283F841207B6801220D
:1031000083F842207B68012283F843207B680122F8
:1031100083F844207B68012283F845207B680122E4
:1031200083F83D20002318460837BD4680BD80B592
:1031300084B000AF78607B681B68DB68FB607B68ED
:103140001B681B69BB60BB6803F00203002B20D027
:10315000FB6803F00203002B1BD07B681B686FF039
:1031600002021A617B6801221A777B681B689B69DF
:1031700003F00303002B03D0786800F0A3F905E007
:10318000786800F095F9786800F0A6F97B6800226D
:103190001A77BB6803F00403002B20D0FB6803F010
:1031A0000403002B1BD07B681B686FF004021A61BC
:1031B0007B6802221A777B681B689B6903F4407363
:1031C000002B03D0786800F07DF905E0786800F006
:1031D0006FF9786800F080F97B6800221A77BB6885
:1031E00003F00803002B20D0FB6803F00803002B3A
:1031F0001BD07B681B686FF008021A617B68042291
:103200001A777B681B68DB6903F00303002B03D08C
:10321000786800F057F905E0786800F049F97868B7
:1032200000F05AF97B6800221A77BB6803F010039C
:10323000002B20D0FB6803F01003002B1BD07B6811
:103240001B686FF010021A617B6808221A777B688E
:103250001B68DB6903F44073002B03D0786800F02F
:1032600031F905E0786800F023F9786800F034F966
:103270007B6800221A77BB6803F00103002B0CD097
:10328000FB6803F00103002B07D07B681B686FF01D
:1032900001021A61786800F001F9BB6803F080034D
:1032A000002B0CD0FB6803F08003002B07D07B6859
:1032B0001B686FF080021A61786800F0BFFABB6883
:1032C00003F04003002B0CD0FB6803F04003002BFD
:1032D00007D07B681B686FF040021A61786800F0C5
:1032E00005F9BB6803F02003002B0CD0FB6803F04A
:1032F0002003002B07D07B681B686FF020021A6147
:10330000786800F091FA00BF1037BD4680BD80B5E7
:1033100084B000AF786039600023FB737B6893F85A
:103320003C30012B01D10223B4E07B68012283F8F9
:103330003C207B68022283F83D207B681B689B68E9
:10334000BB60BB6823F07703BB60BB6823F47F439B
:10335000BB607B681B68BA689A603B681B68B3F502
:10336000005F3ED0B3F5005F00F28780B3F5805F69
:1033700000F08680B3F5805F7FD8702B1AD0702B59
:103380007BD8602B50D0602B77D8502B3CD0502B63
:1033900073D8402B58D0402B6FD8302B64D0302BB3
:1033A0006BD8202B60D0202B67D8002B5CD0102B43
:1033B0005AD062E07B6818683B6899683B685A6835
:1033C0003B68DB6800F0A2F97B681B689B68BB6008
:1033D000BB6843F07703BB607B681B68BA689A6080
:1033E0004FE07B6818683B6899683B685A683B689F
:1033F000DB6800F08BF97B681B689A687B681B6848
:1034000042F480429A603CE07B6818683B685968E7
:103410003B68DB681A4600F0FFF87B681B685021A8
:10342000184600F058F92CE07B6818683B6859682A
:103430003B68DB681A4600F01EF97B681B68602158
:10344000184600F048F91CE07B6818683B6859682A
:103450003B68DB681A4600F0DFF87B681B68402198
:10346000184600F038F90CE07B681A683B681B6866
:103470001946104600F02FF903E00123FB7300E02A
:1034800000BF7B68012283F83D207B68002283F81F
:103490003C20FB7B18461037BD4680BD80B483B00E
:1034A00000AF786000BF0C37BD465DF8047B704705
:1034B00080B483B000AF786000BF0C37BD465DF8C4
:1034C000047B704780B483B000AF786000BF0C37D6
:1034D000BD465DF8047B704780B483B000AF786070
:1034E00000BF0C37BD465DF8047B704780B483B0E5
:1034F00000AF786000BF0C37BD465DF8047B7047B5
:1035000080B485B000AF786039607B681B68FB6071
:103510007B683A4A93420FD07B68B3F1804F0BD05F
:103520007B68374A934207D07B68364A934203D080
:103530007B68354A934208D1FB6823F07003FB6037
:103540003B685B68FA681343FB607B682B4A9342D5
:103550001BD07B68B3F1804F17D07B68284A934219
:1035600013D07B68274A93420FD07B68264A934248
:103570000BD07B68254A934207D07B68244A93424C
:1035800003D07B68234A934208D1FB6823F440733D
:10359000FB603B68DB68FA681343FB60FB6823F061
:1035A00080023B685B691343FB607B68FA681A60C2
:1035B0003B689A687B68DA623B681A687B689A6243
:1035C0007B680E4A934203D13B681A697B681A6391
:1035D0007B6801225A617B681B6903F00103012BA0
:1035E00005D17B681B6923F001027B681A6100BF6B
:1035F0001437BD465DF8047B704700BF00000140F2
:103600000004004000080040000C00400040014061
:10361000004401400048014080B487B000AFF8602A
:10362000B9607A60FB681B6A7B61FB681B6A23F0E8
:103630000102FB681A62FB689B693B613B6923F0EE
:10364000F0033B617B681B013A6913433B617B6973
:1036500023F00A037B617A69BB6813437B61FB68D3
:103660003A699A61FB687A691A6200BF1C37BD46E5
:103670005DF8047B704780B487B000AFF860B96034
:103680007A60FB681B6A7B61FB681B6A23F010028F
:10369000FB681A62FB689B693B613B6923F47043DA
:1036A0003B617B681B033A6913433B617B6923F0F1
:1036B000A0037B61BB681B017A6913437B61FB68D4
:1036C0003A699A61FB687A691A6200BF1C37BD4685
:1036D0005DF8047B704780B485B000AF78603960D6
:1036E0007B689B68FB60FB6823F07003FB603A68B3
:1036F000FB68134343F00703FB607B68FA689A603A
:1037000000BF1437BD465DF8047B704780B487B0B6
:1037100000AFF860B9607A603B60FB689B687B61D2
:103720007B6923F47F437B613B681A027B681A4301
:10373000BB6813437A6913437B61FB687A699A60BB
:1037400000BF1C37BD465DF8047B704780B485B070
:1037500000AF786039607B6893F83C30012B01D171
:10376000022350E07B68012283F83C207B68022220
:1037700083F83D207B681B685B68FB607B681B6887
:103780009B68BB60FB6823F07003FB603B681B68B1
:10379000FA681343FB607B681B68FA685A607B68B1
:1037A0001B681C4A934218D07B681B68B3F1804F9A
:1037B00013D07B681B68184A93420ED07B681B6845
:1037C000164A934209D07B681B68154A934204D07D
:1037D0007B681B68134A93420CD1BB6823F08003BB
:1037E000BB603B685B68BA681343BB607B681B685F
:1037F000BA689A607B68012283F83D207B680022CA
:1038000083F83C20002318461437BD465DF8047B3E
:10381000704700BF00000140000400400008004065
:10382000000C00400040014080B483B000AF7860DD
:1038300000BF0C37BD465DF8047B704780B483B091
:1038400000AF786000BF0C37BD465DF8047B704761
:1038500080B582B000AF78607B68002B01D1012376
:1038600042E07B6893F84130DBB2002B06D17B68E5
:10387000002283F840207868FDF7DEFD7B68242273
:1038800083F841207B681B68DA687B681B6822F438
:103890000052DA60786800F073F97B681B681A6977
:1038A0007B681B6822F490421A617B681B685A6926
:1038B0007B681B6822F02A025A617B681B68DA6801
:1038C0007B681B6842F40052DA607B6800225A640D
:1038D0007B68202283F841207B68202283F84220E5
:1038E0007B6800225A63002318460837BD4680BD16
:1038F00080B58AB002AFF860B9603B601346FB80C8
:1039000000237B61FB6893F84130DBB2202B75D13B
:10391000BB68002B02D0FB88002B01D101236EE095
:10392000FB6800225A64FB68212283F84120FDF7DE
:1039300077FF7861FB68FA889A84FB68FA88DA84F2
:10394000FB689B68B3F5805F08D1FB681B69002B9F
:1039500004D10023FB61BB68BB6103E0BB68FB6172
:103960000023BB612EE03B6800937B69002280212D
:10397000F86800F048F80346002B05D0FB682022C9
:1039800083F8412003233AE0FB69002B0BD1BB698C
:103990001B881A46FB681B68C2F308025A60BB69A1
:1039A0000233BB6107E0FB691A78FB681B685A6049
:1039B000FB690133FB61FB68DB8C9BB2013B9AB274
:1039C000FB68DA84FB68DB8C9BB2002BCBD13B68B5
:1039D00000937B6900224021F86800F014F8034648
:1039E000002B05D0FB68202283F84120032306E04A
:1039F000FB68202283F84120002300E002231846C0
:103A00002037BD4680BD80B586B000AFF860B96094
:103A10003B601346FB713BE03B6AB3F1FF3F37D09D
:103A2000FDF7FEFE02463B68D31A3A6A9A4202D379
:103A30003B6A002B01D103233AE0FB681B68DB687B
:103A400003F00403002B23D0BB68802B20D0BB687D
:103A5000402B1DD0FB681B681B6803F00803082B74
:103A600016D100237B61FB681B681B687B61FB68C8
:103A70001B685B687B617B69F86800F01DF8FB6878
:103A800008225A64FB68002283F8402001230FE0DB
:103A9000FB681B681A68BB681340BA689A420CBF7F
:103AA00001230023DBB21A46FB799A42B4D00023EB
:103AB00018461837BD4680BD80B495B000AF786019
:103AC0007B681B680C337B637B6B53E8003F3B6375
:103AD0003B6B23F49073FB647B681B680C33FA6CBC
:103AE0003A64FB63F96B3A6C41E80023BB63BB6B40
:103AF000002BE5D17B681B6814333B623B6A53E8BB
:103B0000003FFB61FB6923F00103BB647B681B681A
:103B10001433BA6CFA62BB62B96AFA6A41E80023EC
:103B20007B627B6A002BE5D17B681B6B012B19D173
:103B30007B681B680C33FB60FB6853E8003FBB608D
:103B4000BB6823F010037B647B681B680C337A6CC2
:103B5000BA617B617969BA6941E800233B613B69DD
:103B6000002BE5D17B68202283F842207B6800226D
:103B70001A6300BF5437BD465DF8047B70470000F0
:103B80002DE9B04FC0B000AFC7F8F400D7F8F4305B
:103B90001B681B6923F44050D7F8F430D968D7F874
:103BA000F4301A6840EA01031361D7F8F4309A68D8
:103BB000D7F8F4301B691A43D7F8F4305B691A431D
:103BC000D7F8F430DB691343C7F8F830D7F8F4308E
:103BD0001B68DB6823F4164121F00C01D7F8F430A0
:103BE0001A68D7F8F8300B43D360D7F8F4301B6865
:103BF0005B6923F44070D7F8F4309969D7F8F43052
:103C00001A6840EA01035361D7F8F4301A688F4B01
:103C10009A4205D0D7F8F4301A688D4B9A4204D1F5
:103C2000FFF722FAC7F8FC0003E0FFF709FAC7F82C
:103C3000FC00D7F8F430DB69B3F5004F40F00C819D
:103C4000D7F8FC300022C7F8E830C7F8EC20D7E9F5
:103C50003A4522462B469118B9655B41FB65D7E989
:103C60001623214612EB0108294643EB01094FF0C8
:103C700000024FF000034FEAC90343EA58734FEACA
:103C8000C80290469946234618EB0303C7F8E03074
:103C90002B4649EB0303C7F8E430D7F8F4305B68F0
:103CA0000022C7F8D830C7F8DC20D7E936120B4617
:103CB000DB183B65134642EB03037B65D7E914230E
:103CC000D7E93801FCF7E8FF02460B46614BA3FB3E
:103CD00002235B091C01D7F8FC300022C7F8D03062
:103CE000C7F8D420D7E9348942464B469118B964C5
:103CF0005B41FB64D7E91223414612EB010A4946B6
:103D000043EB010B4FF000024FF000034FEACB03EF
:103D100043EA5A734FEACA0292469B4643461AEB5D
:103D20000303C7F8C8304B464BEB0303C7F8CC304E
:103D3000D7F8F4305B680022C7F8C030C7F8C42059
:103D4000D7E930120B46DB183B64134642EB030302
:103D50007B64D7E91023D7E93201FCF79DFF0246C7
:103D60000B4611463B4BA3FB01235B09642202FB7C
:103D700003F3CB1ADB0003F13202364BA3FB022321
:103D80005B095B0003F4F8731C44D7F8FC30002295
:103D9000C7F8B830C7F8BC20D7E92E8942464B4651
:103DA0009118B9635B41FB63D7E90E234146511873
:103DB000396349464B417B634FF000024FF00003EB
:103DC000D7E90CAB5946CB00514643EA51735146F3
:103DD000CA0010461946034642469B18C7F8B03041
:103DE0004B460A4642EB0303C7F8B430D7F8F43029
:103DF0005B680022C7F8A830C7F8AC20D7E92A12C0
:103E00000B46DB18BB62134642EB0303FB62D7E9A8
:103E10000A23D7E92C01FCF73FFF02460B460D4B66
:103E2000A3FB02135B09642101FB03F3D31ADB003C
:103E30003233084AA2FB03235B0903F00702D7F8D9
:103E4000F4301B6822449A6006E100BF0010014074
:103E5000001401401F85EB51D7F8FC300022C7F851
:103E6000A030C7F8A420D7E9288942464B469118CC
:103E700039625B417B62D7E90823414654184946C1
:103E800043EB01054FF000024FF00003EB0043EA63
:103E90005473E20014461D464346E318C7F89830B1
:103EA0004B4645EB0303C7F89C30D7F8F4305B680A
:103EB0000022C7F89030C7F894204FF000024FF06E
:103EC0000003D7E9244529468B00214643EA917334
:103ED00021468A00D7E92601FCF7DEFE02460B46A2
:103EE000604BA3FB02235B091C01D7F8FC300022C6
:103EF000C7F88830C7F88C20D7E9228942464B465C
:103F00009118B9615B41FB61D7E90623414651181D
:103F1000396149464B417B614FF000024FF000038D
:103F2000D7E904AB5946CB00514643EA5173514699
:103F3000CA0010461946034642469B18C7F880300F
:103F40004B460A4642EB0303C7F88430D7F8F430F7
:103F50005B680022BB67FA674FF000024FF0000376
:103F6000D7E91E8949468B00414643EA9173414691
:103F70008A00D7E92001FCF78FFE02460B46114666
:103F8000384BA3FB01235B09642202FB03F3CB1A2A
:103F90001B013233334AA2FB03235B0903F0F00316
:103FA0001C44D7F8FC3000223B677A67D7E91C89AC
:103FB00042464B469118B9605B41FB60D7E902234A
:103FC00041465118396049464B417B604FF0000231
:103FD0004FF00003D7E900AB5946CB00514643EA06
:103FE00051735146CA0010461946034642469B1873
:103FF000BB664B460A4642EB0303FB66D7F8F43038
:104000005B6800223B667A664FF000024FF00003C7
:10401000D7E9188949468B00414643EA91734146E6
:104020008A00D7E91A01FCF737FE02460B460D4B12
:10403000A3FB02135B09642101FB03F3D31A1B01E9
:104040003233084AA2FB03235B0903F00F02D7F8BF
:10405000F4301B6822449A6000BF07F58077BD46A4
:10406000BDE8B08F1F85EB512DE9FF4757EC106B72
:10407000002F0C4619463B46BBBF07F100431F46C5
:1040800000232D230B700D9BDDF830A0914623F00B
:104090002008BCBF32461646B8F1460F05D0B8F12D
:1040A000450F00D10134022100E0032103AB01934D
:1040B00002AB009347EC106B5346224601F074F8B4
:1040C000B8F1470F054619D119F0010F0ED000EBDA
:1040D00004090022002330463946FCF7FDFC08B1F4
:1040E000CDF80C903022039B4B451ED3039B0E9AB8
:1040F0005B1B2846136004B0BDE8F087B8F1460F9B
:1041000000EB0409E5D10378302B0AD1002200230B
:1041100030463946FCF7E0FC18B9C4F10104CAF88E
:104120000040DAF800309944D3E7591C03911A7023
:10413000D9E7F7B50029BABF49422D232B23092916
:104140000270437029DD0DF107031D460A271A4648
:10415000B1FBF7F607FB1614303402F8014C0C469D
:10416000632C03F1FF333146F1DC3031941E03F848
:10417000011C411C2346AB420AD30DF109039B1AD3
:10418000AC4288BF002302330344181A03B0F0BDC9
:1041900013F8016B01F8016FEDE7302330318370C4
:1041A000C170031DF1E700002DE9F04F8DB00C4602
:1041B000DDF8588016461F46054600F0EFFE0368FE
:1041C00004931846FCF75CF800230A93D8F80030F3
:1041D0000590073323F0070303F1080294F818A0B1
:1041E000D4F800B0C8F80020D3E9008929F00043D2
:1041F0000793CDF81880C4E91289DDE906019C4BCC
:104200004FF0FF32FCF79AFC70BBDDE90601984BDA
:104210004FF0FF32FCF774FC30BB00220023404615
:104220004946FCF763FC10B12D2384F84330914AD2
:10423000914BBAF1470F94BF9046984603232361F0
:104240002BF0040323604FF00009009733460BAABC
:104250002146284600F0D2F9013040F08D804FF021
:10426000FF300DB0BDE8F08F42464B464046494610
:10427000FCF764FC40B14B46002BBCBF2D2384F8F7
:1042800043307E4A7E4BD4E763680AF0DF02069231
:104290005A1C3BD1062363604BF4806200232260EA
:1042A00003930AABCDE901A309AB0093616849EC24
:1042B000108B0DF123032846FFF7D6FE069B0999C4
:1042C000472B804629D1C81C02DB6368994241DD37
:1042D000AAF1020A5FFA8AFA0139524604F1500043
:1042E0000991FFF726FF0A9A1318012A81462361D4
:1042F00002DC2268D20701D5013323619DF8233007
:10430000002BA2D02D2384F843309EE7069A472A3B
:10431000C2D1002BC0D10123BDE7BAF1650FDBD9B3
:10432000BAF1660F18D1002963680BDD216113B95A
:104330002268D00702D501330B442361A1654FF0F9
:104340000009DBE713B92268D20701D50233F4E78D
:104350000123F2E74FF0670A0A9B994205DB2368C5
:104360002161D807EAD54B1CE7E70029D4BFC1F18A
:10437000020201221344E0E723685A0507D42369A7
:10438000424631462846B84701302BD167E7BAF19B
:10439000650F40F2DD80D4E9120100220023FCF712
:1043A0009BFB002833D0374A012331462846B847C3
:1043B00001303FF454AFDDE90938434502DB23689F
:1043C000D8070FD5DDE9042331462846B847013028
:1043D0003FF445AF4FF0000908F1FF3804F11A0A25
:1043E000C84509DC23689B0700F10381E0680B9B4B
:1043F0009842B8BF184634E7012352463146284652
:10440000B84701303FF42BAF09F10109E8E7099BF8
:10441000002B39DC1B4A012331462846B8470130BE
:104420003FF41DAFDDE9093959EA030302D12368DE
:10443000D907D7D5DDE9042331462846B8470130EE
:104440003FF40DAF4FF0000A04F11A0B099B5B42D9
:10445000534501DC4B4693E701235A463146284633
:10446000B84701303FF4FBAE0AF1010AEEE700BFA6
:10447000FFFFEF7F7C8700088087000884870008A3
:10448000888700088C870008A36DDDF828A05345B5
:10449000A8BF5346002B994636DC4FF0000B29EAA3
:1044A000E97904F11A02A36D0693A3EB09035B45B6
:1044B00031DC099B9A453ADC2368DA0737D4099B3B
:1044C000AAEB0309069BAAEB03039945A8BF9946EB
:1044D000B9F1000F33DC4FF0000829EAE97904F163
:1044E0001A0B099BAAEB0303A3EB090343457FF7D0
:1044F00079AF01235A4631462846B84701303FF488
:10450000AEAE08F10108ECE7424631462846B8470E
:104510000130C2D1A3E60123314628460692B847AE
:1045200001303FF49CAE069A0BF1010BBBE7DDE9CD
:10453000042331462846B8470130C0D18FE6069A99
:104540004B46424431462846B8470130C3D186E63F
:10455000DDF828A0BAF1010F01DCDB0736D5012315
:10456000424631462846B84701303FF478AEDDE98F
:10457000042331462846B84701303FF470AED4E9F1
:104580001201002200230AF1FF3AFCF7A5FAC0B994
:10459000534608F1010231462846B84701300CD194
:1045A0005DE601235A4631462846B84701303FF4BC
:1045B00056AE08F10108D045F3DB4B4604F150023A
:1045C000DFE64FF0000804F11A0BF4E7012342463E
:1045D000E1E701234A4631462846B84701303FF417
:1045E0003EAE08F10108E3680B995B1A4345F0DC25
:1045F000FCE64FF0000804F11909F4E72DE9F04753
:10460000164698468A680B69DDF820909342B8BF39
:104610001346336091F8432007460C460AB1013334
:1046200033602368990642BF3368023333602568DC
:1046300015F0060506D104F1190AE36832689B1AE1
:10464000AB4226DC94F843302268003B18BF0123BC
:1046500092062BD404F1430241463846C847013044
:104660001ED02368226903F00603042B02BFE5680D
:104670003368ED1AA3680CBF25EAE575002593425F
:10468000C4BF9B1AED1800261A34B5421AD1002077
:1046900008E00123524641463846C847013003D15D
:1046A0004FF0FF30BDE8F0870135C6E7E1185A1C2E
:1046B000302081F84300224494F8451082F84310DA
:1046C0000233C7E70123224641463846C847013036
:1046D000E6D00136D9E700002DE9FF470F7E0C9E9A
:1046E000782F914680460C469A4601F1430207D83E
:1046F000622F0AD8002F00F0D280582F00F0B98026
:1047000004F1420684F842703AE0A7F16303152BE6
:10471000F6D801A151F823F0714700088547000839
:104720000147000801470008014700080147000849
:1047300085470008014700080147000801470008B5
:104740000147000885480008AF4700083F480008B7
:104750000147000801470008A74800080147000872
:10476000AF47000801470008014700084748000814
:1047700033681A1D1B68326004F1420684F8423027
:1047800001239DE033682068191D3160060601D5BC
:104790001D6803E04506FBD5B3F90050002D03DA90
:1047A0002D236D4284F8433059480A2311E02168D3
:1047B0003368080653F8045B02D4490648BFADB21B
:1047C0006F2F5348336014BF0A230823002184F855
:1047D00043106668A660002EA2BF216821F0040184
:1047E00021600DB9002E4BD01646B5FBF3F103FB4B
:1047F0001157C75D06F8017D2F46BB420D46F4D91F
:10480000082B0BD12368DF0708D52369616899421B
:10481000DEBF302306F8013C06F1FF36921B226111
:10482000CDF800A04B4603AA21464046FFF7E6FE1E
:1048300001304AD14FF0FF3004B0BDE8F087236863
:1048400043F0200323603348782784F845702368B9
:1048500031681F0651F8045B02D45F0648BFADB251
:104860003160D90744BF43F0200323601DB11023FA
:10487000ACE72748E9E7236823F020032360F6E745
:104880001646BDE7336825686169181D30602E063D
:104890001B6801D5196002E06806FBD5198000236A
:1048A00023611646BCE733681A1D32601E686268D1
:1048B00000213046FBF794FC08B1801B6060636800
:1048C0002361002384F84330AAE72369324649462E
:1048D0004046D0470130ADD023689B0713D4E06831
:1048E000039B9842B8BF1846A6E7012332464946C3
:1048F0004046D04701309DD00135E36803995B1AEB
:10490000AB42F2DCEBE7002504F11906F5E700BF46
:104910008E8700089F8700082DE9F04F87B0174663
:1049200003938B685A1EB2F5AE7F81BF6FF4AE75EC
:1049300003EB050B40F25D138B600B680A464FF0EA
:10494000000543F4F06342F81C3BCDE90455804672
:104950000C4698BF4FF0000B01921646AA46A94696
:104960000295A26852B13B681B784E2B64D8402B4D
:104970003CD8A3F12B01C8B20E283AD9B9F1000FE7
:1049800003D0236823F4807323600AF1FF3ABAF15D
:10499000010F00F21781019B9E4200F20881012065
:1049A00007B0BDE8F08FA3F161020D2AE6D801A19E
:1049B00051F822F0FB4A00087D4900087D490008B3
:1049C0007D4900085B4B0008334B00087D49000817
:1049D0007D490008094B00087D4900087D49000811
:1049E0007D4900087D490008C14A0008A3F1410241
:1049F000DBE70E29C2D801A050F821F0B14A000827
:104A00007D490008B14A0008474B00087D4900086D
:104A1000594A0008974A0008974A0008974A000830
:104A2000974A0008974A0008974A0008974A0008E2
:104A3000974A0008974A00086E2B09D8602BB2D815
:104A4000542B7BD0592B99D1072D97D108252CE0D9
:104A5000742B73D0792BF6E72168C8051BD521F09C
:104A60008001216009F10109BBF1000F03D001327F
:104A70000BF1FF3BA260A368013BA36023690133F4
:104A800023617B68013B002B7B6040F387803B68A0
:104A900001333B6065E71AEB05017FF46FAF2268D5
:104AA00022F4C07222600D468A4606F8013BE2E716
:104AB000226810067FF562AF22F080022260F4E7E0
:104AC000BAF1000F0ED1B9F1000F0ED1226802F435
:104AD000E061B1F5E06F08D122F4F06222604FF09E
:104AE000010AE2E7BAF1020F55D0012D02D0042DE0
:104AF0007FF444AF0135EDB2D7E7BAF1010F7FF48F
:104B00003DAF4FF0020AD0E77DB9B9F1000F7FF455
:104B100038AF226802F4E061B1F5E06F40F008813F
:104B200022F4F06222600125BFE7032DE2D0052DBB
:104B3000DEE7022D7FF422AF0325B6E7062D7FF4D2
:104B40001DAF0725B1E7226891057FF517AF22F465
:104B500020722260CDF80890A7E7226802F4A061D5
:104B6000B1F5806F06D050057FF508AFB9F1000FA1
:104B700000F0DE80910558BF029922F4F06258BF20
:104B8000A9EB010142F4C07258BFCDE904162260BE
:104B90004FF0000989E74FF0030A86E7D4F8803127
:104BA00039464046984700283FF4DBAEE6E6D4F8A5
:104BB0007C3116F8011D3A46404698472369013B6F
:104BC0002361E8E66B1E062B24D8022D36D8019B04
:104BD0009E427FF6E4AED4F87C3116F8011D3A46C9
:104BE000404698472369013B2361F0E7D4F87C31C4
:104BF0001BF8011D3A46404698472369013B236153
:104C00000AF1FF3A5FFA8AFABAF1020FEED1033DD8
:104C1000EDB2761B2368DA0530D55B0511D5019B13
:104C20009E427FF6BCAED4F87C3116F8011D3A46A0
:104C3000404698472369013B2361F0E7AA46B34603
:104C4000DEE716F8011C2369652903F1FF3306F13D
:104C5000FF3523610CD045290AD0D4F87C313A467F
:104C600040469847236916F8021C013BB51E236194
:104C7000D4F87C313A46404698472E46226812F0D6
:104C8000100201D000208BE63270236803F4C06369
:104C9000B3F5806F1CD1029B4B45A3EB090223D1D6
:104CA00001990022404602F0F7FB039B21681B6834
:104CB00011F0020F57EC106B03F104021FD003999F
:104CC0000A601B68C3E90067E3680133E360D9E762
:104CD000049B002BE4D005990A230131404602F0E1
:104CE0005BFC049B059EC21A04F26F139E4228BF10
:104CF00004F5B7761049304600F0E4F8D0E711F03B
:104D0000040F03990A60DCD11D6832463B463046E9
:104D10003946FBF713FF28B1084800F0B7F985EDD5
:104D2000000AD1E730463946FBF766FF2860CBE73B
:104D30004FF0000929E600BFB0870008458B000846
:104D4000002310B50446C0E90033C0E90433836092
:104D500081814366C2818361194608225C3000F07C
:104D600014F90D4B63620D4BA3620D4BE3620D4BC7
:104D700023630D4B24629C4206D003F168029442E7
:104D800002D0D0339C4205D104F15800BDE8104058
:104D900000F078B910BD00BF054F0008274F00088C
:104DA0005F4F0008834F0008D0020020024A0349E9
:104DB000034800F069B800BF0C00002055790008D6
:104DC0001C00002041680C4B994210B5044601D0EC
:104DD00002F0C0FDA168094B994202D0204602F0C2
:104DE000B9FDE168064B994204D02046BDE8104069
:104DF00002F0B0BD10BD00BFD0020020380300207B
:104E0000A003002010B50B4B0B4C0C4A1A60204637
:104E100000220421FFF794FF04F168000122092118
:104E2000FFF78EFF04F1D0000222BDE810401221EE
:104E3000FFF786BF08040020D0020020AD4D000817
:104E4000014800F020B900BF11040020014800F023
:104E50001BB900BF1104002010B50446FFF7F0FF96
:104E6000236A1BB1BDE81040FFF7F0BF044B23627B
:104E7000044B1B68002BF5D1FFF7C4FFF2E700BF1E
:104E8000C54D0008080400202DE9F8430746884670
:104E900014460026D4E90195B9F1010905D5246825
:104EA000002CF7D13046BDE8F883AB89012B07D938
:104EB000B5F90E30013303D029463846C0470643C2
:104EC0006835E9E70EB400B59CB01DAB02900690C2
:104ED0006FF00041094807910491094953F8042BE8
:104EE00005910068019302A902F0B4FB029B002225
:104EF0001A701CB05DF804EB03B070471800002076
:104F00000802FFFF10B50C46B1F90E1000F06CF866
:104F10000028ABBF636DA3891B1823F48053ACBF7B
:104F20006365A38110BD2DE9F0411F468B89DB0528
:104F300005460C46164605D5B1F90E10022300228F
:104F400000F040F8A389B4F90E1023F48053A38134
:104F500032463B462846BDE8F04100F057B810B550
:104F60000C46B1F90E1000F02DF8431CA38915BFB3
:104F7000606523F4805343F48053A38118BFA38159
:104F800010BDB1F90E1000F00DB802440346934273
:104F900000D1704703F8011BF9E700000048704793
:104FA0005801002038B5064D0023044608462B6002
:104FB000FCF72AFB431C02D12B6803B1236038BDE8
:104FC0000C04002038B5074D04460846114600225F
:104FD0002A601A46FCF73FFB431C02D12B6803B141
:104FE000236038BD0C04002038B5074D0446084640
:104FF000114600222A601A46FCF7CDFA431C02D162
:105000002B6803B1236038BD0C04002038B5074D70
:1050100004460846114600222A601A46FCF7D8FAD0
:10502000431C02D12B6803B1236038BD0C0400205F
:10503000014B1868704700BF1800002070B50D4D77
:105040000D4C641BA4100026A64209D10B4D0C4C3C
:1050500003F070FB641BA4100026A64205D170BDAE
:1050600055F8043B98470136EEE755F8043B98475E
:105070000136F2E7B08B0008B08B0008B08B000857
:10508000B48B000870477047704700009FED010A1D
:10509000704700BF0000C07F2DE9F74F03690C691E
:1050A000A34207467EDB013C01F11408A30000F196
:1050B0001405009305EB8403019358F8243055F848
:1050C000242001339A4208EB8409B2FBF3F62ED375
:1050D0004FF0000AC446AE46D3465CF8043B98B293
:1050E00006FB00A0020C1B0C06FB0323DEF80020CD
:1050F00080B292B2121A5A44DEF800004FEA134A04
:105100009BB2C3EB224303EB104392B242EA034249
:10511000E1454EF8042B4FEA234BDED2009BEB58BF
:105120002BB9019B043B9D421A462FD33C61384664
:1051300001F0C2F9002825DB2946002058F8042B8D
:10514000D1F800C01FFA82FE1FFA8CF3A3EB0E0306
:105150000344120CC2EB234202EB1C429BB243EA13
:105160000243C14541F8043B4FEA2240E6D255F8DC
:10517000242005EB840322B9043B9D421A460BD33D
:105180003C610136304603B0BDE8F08F1268043B45
:10519000002ACBD1013CC6E71268043B002AEFD1BC
:1051A000013CEAE70020EEE72DE9F04FC76999B02E
:1051B0008DED020B55EC104B229E099183460E9209
:1051C00013937FB9102000F0FDFD0246CBF81C00C0
:1051D00020B9A74BEF21A74802F036FCC0E90177C0
:1051E0000760C760DBF81C30196859B15A684A601B
:1051F000012393408B60584600F0DAFEDBF81C3048
:1052000000221A602B1EB9BF23F000430393002332
:105210003360039F984BBCBF01223260BB4312D165
:10522000139A42F20F731360C7F31303234300F082
:105230004D85239BDFF854A2002B00F04F850AF127
:10524000030300F049BD9DED027B002251EC170BDA
:1052500000238DED0C7BFBF73FFC804658B1139A81
:1052600001231360239B13B1239A844B1360DFF84F
:1052700020A200F033BD9DED0C0B16AA17A95846CD
:1052800001F03AFAC7F30A568146002E77D00D9BFB
:10529000CDF85080C3F31303DDE90C0143F07F53D5
:1052A00043F44013A6F2FF3619460022744BFAF776
:1052B000F3FF69A3D3E90023FBF7A6F968A3D3E9B9
:1052C0000023FAF7EBFF044630460D46FBF732F9B0
:1052D00065A3D3E90023FBF797F902460B46204666
:1052E0002946FAF7DBFF04460D46FBF73DFC00229A
:1052F0000746002320462946FBF7F8FB40B1384615
:10530000FBF718F922462B46FBF7E6FB00B9013FF5
:10531000162F51D85B4B03EBC703D3E90023DDE91C
:105320000C01FBF7E3FB002848D0013F0023129358
:10533000169B9B1B5A1E44BFC3F101080023089211
:1053400054BF4FF000080893002F39DB089B0F97DC
:105350003B44089300230A93099B092B64D8052B2F
:10536000C4BF043B0993099BA3F10203CCBF0024F3
:105370000124032B63D8DFE803F02A373555DDE934
:1053800016631E4406F23243202BC1BFC3F1400313
:105390009F4006F2124324FA03F3D6BFC3F1200361
:1053A00047EA030004FA03F0FBF7B4F80122A1F185
:1053B000F873013E149277E70123B8E71290B7E73C
:1053C0007B420A930023A8EB07080F93C4E700234E
:1053D0000B930E9B002B35DC0123009307931A4699
:1053E0000E920BE00123F3E700230B930E9BFB18B7
:1053F00000930133012B0793B8BF0123DBF81C0096
:105400000021042202F114059D421FD94160584633
:1054100000F08EFD824600283CD11B4B024640F234
:10542000AF11D8E60123E0E70124002309930B9490
:105430004FF0FF330093079300221223D0E701239C
:105440000B93F5E70E9B00930793D7E701315200CA
:10545000D8E700BFAFF3008061436F63A787D23FF7
:10546000B3C8608B288AC63FFB799F501344D33F53
:10547000C2870008D98700080000F07F8D870008E8
:105480000000F83FD088000831880008BE87000877
:105490008C870008DBF81C301860079B0E2B00F28D
:1054A000A480002C00F0A180002F33DDAD4B07F06D
:1054B0000F0203EBC20393ED007BF8058DED047B37
:1054C0004FEA271416D5A84BDDE90C01D3E90823D0
:1054D000FBF7C4F9CDE9020104F00F040326A24D45
:1054E00054B9DDE90423DDE90201FBF7B7F9CDE9A1
:1054F000020128E00226F2E7E10708D5DDE9040110
:10550000D5E90023FBF780F8CDE9040101366410EA
:105510000835E5E700F0D2807C42924B924D04F0D2
:105520000F0203EBC203D3E90023DDE90C01FBF713
:105530006BF8CDE90201241100230226002C40F073
:10554000B280002BD3D1129BDDE90245002B00F085
:10555000B780864B002220462946FBF7C7FA002871
:1055600000F0AE80079B002B00F0AA80009B002B70
:1055700037DD7B1E049320467D4B00222946FBF736
:1055800043F8CDE90201009C01363046FAF7D2FF1C
:10559000DDE90223FBF738F8764B0022FAF77EFEAE
:1055A0000546A1F15076002C40F08D80DDE9020126
:1055B000714B0022FAF770FE02460B46CDE902233A
:1055C0002A463346FBF7B0FA002840F08B82DDE92B
:1055D00002012A4606F10043FBF788FA002840F052
:1055E0002881DDE90C34CDE90234179B002BC0F291
:1055F0005A810E2F00F357815A4B03EBC70393EDEB
:10560000007B0E9B002B8DED007B03DA079B002BAC
:1056100040F30181DDE902455646DDE900232046DD
:105620002946FBF71BF9FBF79FFA8046FAF782FF42
:10563000DDE90023FAF7E8FF02460B46204629463B
:1056400008F13004FAF728FE06F8014B079DA6EB97
:105650000A04A54202460B4640F01781FAF71EFEE7
:10566000DDE9002304460D46FBF75EFA002840F012
:10567000F980DDE9002320462946FBF72DFA18B111
:1056800018F0010F40F0EE804946584600F090FCBB
:1056900000233370139B01371F60239B002B00F006
:1056A0001D831E601AE3E20705D5D5E90023FAF74A
:1056B000ABFF01360123641008353FE7022642E7BD
:1056C000079C049761E7274B0B9903EBC40353E94D
:1056D00002235444002953D028490020FBF7BEF888
:1056E00033462A46FAF7D8FDCDE910015646DDE9E2
:1056F0000201FBF739FA0546FAF71CFF02460B4692
:10570000DDE90201FAF7C8FD303502460B46CDE966
:10571000022306F8015BDDE91023FBF7E7F9002817
:1057200071D1DDE9022311490020FAF7B5FDDDE969
:105730001023FBF7DBF9002840F09580A6423FF4E8
:1057400050AFDDE910010A4B0022FAF75DFF084B6C
:10575000CDE910010022DDE90201FAF755FFCDE99C
:105760000201C4E7D0880008A88800080000F03FC4
:105770000000244000001C40000014400000E03FF6
:1057800031462846FAF740FFCDE9100115945646F8
:10579000DDE90201FBF7E8F90546FAF7CBFE024620
:1057A0000B46DDE90201FAF777FD303506F8015BBB
:1057B00002460B46A642CDE902234FF0000224D157
:1057C000AC4BDDE91001FAF769FD02460B46DDE955
:1057D0000201FBF7A9F9002845D1DDE91023A5490D
:1057E0000020FAF759FD02460B46DDE90201FBF7FE
:1057F0007DF900283FF4F5AE159E731E159316F83B
:10580000013C302BF8D0049F3EE79B4BFAF7FCFE9F
:10581000CDE90201BCE70CD1984B0022DDE9000183
:10582000FAF7F2FEDDE90223FBF774F9002800F035
:105830005781002425460E9BDB43049356460027E0
:105840002146584600F0B4FB002DDCD02FB1AF420A
:1058500003D03946584600F0ABFB2946584600F0C5
:10586000A7FBD0E7049733461E4613F8012D392ACB
:1058700007D19A45F8D1049A0132049230228AF86D
:1058800000201A7801321A70BDE77B4B0022FAF72C
:10589000BBFE0022002304460D46FBF71DF900283D
:1058A0003FF4BBAEF0E60B9A002A00F0DB80099AC9
:1058B000012A00F3BF80149A002A00F0B78003F297
:1058C00033430A9C4646089A01211A445846984494
:1058D000089200F06BFC05465EB1089B002B08DDCA
:1058E000B342089AA8BF3346A8EB0308F61AD31AA6
:1058F00008930A9BF3B10B9B002B00F0B7808CB18F
:1059000029462246584600F011FD4A460146054602
:10591000584600F061FC49460490584600F048FBA8
:10592000049B99460A9B1A1B04D04946584600F02E
:10593000FDFC81460121584600F038FC0F9B0446CF
:10594000002B00F0CF811A460146584600F0EEFCCD
:10595000099B012B044600F39580029B002B40F02D
:105960008780039BC3F31303002B40F08980039BC4
:1059700023F000431B0D1B052BB1089B013308933B
:1059800008F1010801230A930F9B002B00F0B0815E
:10599000236904EB8303186900F0BCFBC0F120000D
:1059A000089B184410F01F0077D0C0F12003042B8F
:1059B0006BDD089BC0F11C0003448044064408933F
:1059C000B8F1000F05DD49464246584600F008FD93
:1059D0008146089B002B05DD21461A46584600F0FB
:1059E000FFFC0446129B002B59D02146484600F08C
:1059F00063FD002853DA7B1E0493494600230A22E4
:105A0000584600F0F7FA0B9B8146002B00F072819C
:105A1000002329460A22584600F0ECFA009B002B8E
:105A2000054667DC099B022B41DC63E0169BC3F152
:105A3000360346E7079B5C1E0A9BA342BFBF0A9B37
:105A40000F9A0A94E31AB4BFD2181C1B079BBCBF61
:105A50000F920024002BB5BFA8EB0306079B002381
:105A6000464630E70A9C0B9D464635E70A9A5CE7B6
:105A7000002388E70000E03F0000244000001440BD
:105A8000029B80E700230A9382E799D0089A1C338F
:105A90001A4498441E44089292E70346F6E7079B8F
:105AA0000497002B20DC0093099B022B1EDD009B3A
:105AB000002B7FF4C0AE21460522584600F09AFA2A
:105AC00001460446484600F0F7FC00287FF7B3AED5
:105AD0005646312306F8013B049B01330493AEE69E
