:020000040800F2
:1000000000000120D50D0008510D0008590D000811
:10001000610D0008690D0008710D00080000000066
:10002000000000000000000000000000790D000842
:10003000870D000800000000950D0008A30D0008C2
:10004000250E0008250E0008250E0008250E0008C4
:10005000250E0008250E0008250E0008250E0008B4
:10006000250E0008250E0008250E0008250E0008A4
:10007000250E0008250E0008250E0008250E000894
:10008000250E0008250E0008250E000800000000BF
:10009000000000000000000000000000250E000825
:1000A000250E0008250E0008250E0008250E000864
:1000B000250E0008250E0008250E0008250E000854
:1000C000250E0008250E0008250E0008250E000844
:1000D000250E0008250E0008250E0008000000006F
:1000E000250E0008250E0008250E0008000000005F
:1000F000000000000000000000000000250E0008C5
:1001000000000000250E0008250E0008250E00083E
:1001100000000000000000000000000000000000DF
:10012000250E0008250E0008250E0008250E0008E3
:10013000250E000800000000000000000000000084
:10014000000000000000000000000000250E000874
:10015000250E0008250E0008250E0008250E0008B3
:10016000250E0008250E0008000000000000000019
:10017000000000000000000000000000000000007F
:1001800000000000250E0008000000000000000034
:04019000250E000830
:1001940010B5054C237833B9044B13B10448AFF3BD
:1001A40000800123237010BD0C000020000000001B
:1001B400D022000808B5034B1BB103490348AFF331
:1001C400008008BD0000000010000020D0220008BC
:1001D40053B94AB9002908BF00281CBF4FF0FF31AA
:1001E4004FF0FF3000F06AB9ADF1080C6DE904CEB0
:1001F40000F006F8DDF804E0DDE9022304B07047FE
:100204002DE9F047089D0C46002B4ED194468C45B1
:100214008646B2FA82F262D94AB1C2F12003914011
:1002240020FA03F30CFA02FC194300FA02FE4FEA27
:100234001C471FFA8CF6B1FBF7F44FEA1E4307FB89
:10024400141143EA014304FB06F199420AD91CEB59
:10025400030304F1FF3080F01281994240F20F81D0
:10026400023C6344591A1FFA8EF3B1FBF7F007FB03
:10027400101143EA014300FB06F69E420AD91CEB27
:10028400030300F1FF3180F0FC809E4240F2F980CC
:10029400634402389B1B40EA044000211DB1D34053
:1002A4000022C5E90032BDE8F0878B4205D90DB1C3
:1002B400C5E9000100210846F5E7B3FA83F10029F6
:1002C40046D1A34202D39042C0F0F080861A64EB78
:1002D40003030120002DE6D0C5E90063E3E7002A0B
:1002E40040F09080A1EB0C044FEA1C481FFA8CF7F5
:1002F4000121B4FBF8F64FEA1E4308FB164443EA17
:10030400044307FB06F0984208D91CEB030306F1EB
:10031400FF3402D2984200F2CD8026461C1A1FFAFE
:100324008EF3B4FBF8F008FB104443EA044300FBEB
:1003340007F79F4208D91CEB030300F1FF3402D2F4
:100344009F4200F2B0802046DB1B40EA0640A5E74E
:10035400C1F120068B4022FA06F71F4320FA06FC5F
:1003640004FA01F343EA0C03F44000FA01F8380CF0
:100374004FEA1349B4FBF0FE1FFA87FC00FB1E444E
:1003840049EA04440EFB0CF9A14502FA01F20AD928
:100394003C190EF1FF3A80F08480A14540F281803F
:1003A400AEF1020E3C44A4EB09041FFA83F9B4FB3A
:1003B400F0F300FB134449EA044403FB0CFCA4459A
:1003C40007D93C1903F1FF3067D2A44565D9023B34
:1003D4003C4443EA0E40A0FB0293A4EB0C049C4271
:1003E400CE469C4651D34ED055B1B8EB0E0364EBC8
:1003F4000C0404FA06F6CB401E43CC40C5E9006465
:10040400002150E7C2F1200320FA03F10CFA02FCA8
:1004140024FA03F394400C434FEA1C4800FA02FE0A
:100424001FFA8CF7B3FBF8F008FB1031230C43EAF6
:10043400014300FB07F1994208D91CEB030300F1C7
:10044400FF362CD299422AD9023863445B1AA4B2EB
:10045400B3FBF8F108FB113344EA034401FB07F34F
:10046400A34208D91CEB040401F1FF3613D2A342C2
:1004740011D902396444E41A41EA004139E70446D7
:10048400F0E6084606E7C845AED2B9EB020E63EBC8
:10049400070C0138A8E73146EDE7034699E73046F3
:1004A400D4E7D6467FE7634402384DE70646234641
:1004B40008460FE7023E634430E700BF704700BFC1
:1004C40080B582B002AF00F0ADFC00F0C7F800F0D8
:1004D4002BF901230193402300938023544A0021E4
:1004E400002000F000FB00F0E3F90721002000F0F9
:1004F40085FA41F2883000F007FD00F0EBFA07219D
:10050400002000F0B1FA41F2883000F0FDFC00F068
:10051400E1FA00F050FB0123019340230093802370
:10052400444A0021002000F0DEFA00F0C1F900F096
:1005340042FB012301934023009380233E4A002180
:10054400002000F0D0FA00F0B3F900F034FB0123EE
:100554000193402300938023384A0021002000F0B7
:10056400C2FA00F0A5F900F026FB01230193402311
:1005740000938023324A0021002000F0B4FA00F0F6
:1005840097F900F018FB0123019340230093802383
:100594002C4A0021002000F0A6FA00F089F900F0AE
:1005A4000AFB01230193402300938023264A002160
:1005B400002000F098FA00F07BF900F0FCFA012327
:1005C4000193402300938023204A0021002000F05F
:1005D4008AFA00F06DF900F0EEFA0123019340234A
:1005E400009380231A4A0021002000F07CFA00F0D6
:1005F4005FF900F0E0FA0123019340230093802384
:10060400144A0021002000F06EFA00F051F900F0C5
:10061400D2FA012301934023009380230E4A002140
:10062400002000F060FA00F043F900BF71E700BF5A
:10063400E8220008E8260008E82A0008E82E000856
:10064400E8320008E8360008E83A0008E83E000806
:10065400E8420008E8460008E84A000880B594B07B
:1006640000AF07F1200330220021184601F002FEFA
:1006740007F10C0300221A605A609A60DA601A616A
:100684000023BB60234B1B6C224A43F0805313644A
:10069400204B1B6C03F08053BB60BB6800237B6062
:1006A4001D4B1B6823F440431B4A43F4004313606F
:1006B400194B1B6803F440437B607B6802233B6255
:1006C4000123FB6210233B630023BB6307F1200378
:1006D400184601F0ABF90346002B01D000F01EF8D8
:1006E4000F23FB6000233B6100237B610023BB617C
:1006F4000023FB6107F10C030021184601F00EFCF6
:100704000346002B01D000F009F800BF5037BD4666
:1007140080BD00BF003802400070004080B400AFCC
:1007240072B600BF00BFFDE780B582B000AF00F035
:100734004BFA44F62063012278215B4800F0ECFD7B
:100744000346002B01D00023A9E040F6C4137B60CC
:1007540002E07B68013B7B607B68002BF9D1AE2211
:100764000021782000F0ACFA20220021782000F04B
:10077400A7FA10220021782000F0A2FAB02200216A
:10078400782000F09DFAC8220021782000F098FA21
:1007940000220021782000F093FA10220021782012
:1007A40000F08EFA40220021782000F089FA81229C
:1007B4000021782000F084FAFF220021782000F044
:1007C4007FFAA1220021782000F07AFAA6220021E3
:1007D400782000F075FAA8220021782000F070FA41
:1007E4003F220021782000F06BFAA4220021782017
:1007F40000F066FAD3220021782000F061FA00228A
:100804000021782000F05CFAD5220021782000F045
:1008140057FAF0220021782000F052FAD922002160
:10082400782000F04DFA22220021782000F048FAC6
:10083400DA220021782000F043FA122200217820E5
:1008440000F03EFADB220021782000F039FA202261
:100854000021782000F034FA8D220021782000F065
:100864002FFA14220021782000F02AFAAF22002166
:10087400782000F025FA2E220021782000F020FABA
:10088400002000F043F800F013F8084B00221A800F
:10089400064B00225A80054B01225A710123184647
:1008A4000837BD4680BD00BF280000207C0400201E
:1008B40080B582B000AF0023FB711DE0FB79503B93
:1008C400DBB21A460021782000F0FAF90022002158
:1008D400782000F0F5F910220021782000F0F0F9DA
:1008E400FB79DB01084A1A4480234021782000F078
:1008F40081F9FB790133FB71FB79072BDED900BF4A
:1009040000BF0837BD4680BD7C00002080B582B0A2
:1009140000AF0346FB71FB79002B01D1002300E0FB
:10092400FF234FF480621946034801F0A3FC00BF83
:100934000837BD4680BD00BF7C00002080B483B072
:1009440000AF0346FB800B46BB801346FB70FB885D
:100954007F2B48D8BB883F2B45D8264B1B79002BCF
:1009640006D0FB78002B0CBF01230023DBB2FB7005
:10097400FB78012B1AD1FA88BB88DB0898B20346AE
:10098400DB0113441C4AD35C5AB2BB8803F007034F
:10099400012101FA03F35BB2134359B2FA88034607
:1009A400DB011344C9B2144AD1541DE0FA88BB8850
:1009B400DB0898B20346DB0113440F4AD35C5AB2F6
:1009C400BB8803F00703012101FA03F35BB2DB43A5
:1009D4005BB2134059B2FA880346DB011344C9B22F
:1009E400054AD15400E000BF0C37BD465DF8047BD6
:1009F400704700BF7C0400207C00002080B582B0DA
:100A040000AF03460A46FB711346BB712622002140
:100A1400782000F055F900220021782000F050F9E8
:100A2400FB791A460021782000F04AF900220021BF
:100A3400782000F045F9BB791A460021782000F0AF
:100A44003FF900220021782000F03AF9FF2200212A
:100A5400782000F035F92F220021782000F030F9B9
:100A640000BF0837BD4680BD80B582B000AF0346E5
:100A74000A46FB711346BB7127220021782000F03F
:100A84001FF900220021782000F01AF9FB791A4698
:100A94000021782000F014F900220021782000F0D1
:100AA4000FF9BB791A460021782000F009F90022D9
:100AB4000021782000F004F9FF220021782000F0C2
:100AC400FFF82F220021782000F0FAF800BF083741
:100AD400BD4680BD80B500AF2E220021782000F0F5
:100AE400EFF800BF80BD80B586B000AFBA601A468B
:100AF4000346FB810B46BB811346FB80B7F90630E6
:100B04000733002B00DA0733DB103B820023FB752D
:100B14000023BB8244E000237B822FE07B8A03F026
:100B24000703002B03D0FB7D5B00FB7512E0B7F9D4
:100B34001430B7F9102003FB02F2B7F91230002B7E
:100B440000DA0733DB101BB213441A46BB681344A4
:100B54001B78FB7597F91730002B09DAFA897B8A21
:100B640013449BB2B989BA8CD2B21846FFF7E6FE99
:100B7400B7F912309BB201339BB27B82B7F91220D2
:100B8400B7F906309A42C9DBB7F914309BB2013386
:100B94009BB2BB82B7F90C309BB201339BB2BB81D1
:100BA400B7F91420B7F920309A42B4DB00BF00BF74
:100BB4001837BD4680BD80B500AF0020FFF7A6FE04
:100BC400FFF776FE00BF80BD80B483B000AF084B52
:100BD4007B6002E07B68013B7B607B68002BF9D182
:100BE40000BF00BF0C37BD465DF8047B704700BFF3
:100BF40090D0030090B5C7B002AF0446084607F58D
:100C04008871A1F588710A60194607F58873A3F203
:100C1400091322461A7007F58873A3F585730246F3
:100C24001A7007F58873A3F586730A461A8007F5C8
:100C34008873A3F5827307F58872A2F5857212781A
:100C44001A70002387F80F3115E097F80F3107F574
:100C54008872A2F5887212681A4497F80F3101332A
:100C6400117807F58872A2F58272D15497F80F3182
:100C7400013387F80F3197F80F319BB207F588726B
:100C8400A2F5867212889A42DFD807F58873A3F218
:100C940009131B7899B207F58873A3F586731B882B
:100CA40001339BB207F10C020A200090034800F0C4
:100CB40035FA00BF07F58A77BD4690BD28000020AD
:100CC40080B586B002AF0346FB710B46BB71134679
:100CD4007B71BB793B737B797B73FB7999B207F1A9
:100CE4000C020A2300930223034800F017FA00BF02
:100CF4001037BD4680BD00BF2800002080B483B0FB
:100D040000AF00237B60104B5B6C0F4A43F48043BD
:100D140053640D4B5B6C03F480437B607B6800235E
:100D24003B60094B1B6C084A43F080531364064B29
:100D34001B6C03F080533B603B6800BF0C37BD461F
:100D44005DF8047B704700BF0038024080B400AFF8
:100D540000BFFDE780B400AF00BFFDE780B400AF83
:100D640000BFFDE780B400AF00BFFDE780B400AF73
:100D740000BFFDE780B400AF00BFBD465DF8047B53
:100D8400704780B400AF00BFBD465DF8047B704778
:100D940080B400AF00BFBD465DF8047B704780B5EA
:100DA40000AF00F091F800BF80BD000080B400AF38
:100DB400064BD3F88830054A43F47003C2F88830F0
:100DC40000BFBD465DF8047B704700BF00ED00E046
:100DD400DFF834D0FFF7EAFF0C480D490D4A002331
:100DE40002E0D458C4500433C4188C42F9D30A4ADC
:100DF4000A4C002301E013600432A242FBD301F049
:100E040041FAFFF75DFB704700000120000000205D
:100E14000C000020084F00080C000020880400206B
:100E2400FEE7000080B500AF0E4B1B680D4A43F48B
:100E3400007313600B4B1B680A4A43F4806313600E
:100E4400084B1B68074A43F480731360032000F0C7
:100E540031F90F2000F008F8FFF750FF002318467F
:100E640080BD00BF003C024080B582B000AF786016
:100E7400124B1A68124B1B7819464FF47A73B3FB62
:100E8400F1F3B2FBF3F3184600F03BF90346002BF1
:100E940001D001230EE07B680F2B0AD80022796869
:100EA4004FF0FF3000F011F9064A7B68136000230D
:100EB40000E0012318460837BD4680BD000000202D
:100EC400080000200400002080B400AF064B1B780B
:100ED4001A46064B1B681344044A136000BFBD4600
:100EE4005DF8047B704700BF0800002084040020E4
:100EF40080B400AF034B1B681846BD465DF8047B05
:100F0400704700BF8404002080B584B000AF7860CF
:100F1400FFF7EEFFB8607B68FB60FB68B3F1FF3F4F
:100F240005D00A4B1B781A46FB681344FB6000BFCC
:100F3400FFF7DEFF0246BB68D31AFA689A42F7D875
:100F440000BF00BF1037BD4680BD00BF08000020B1
:100F540080B485B000AF78607B6803F00703FB6062
:100F64000C4BDB68BB60BA684FF6FF031340BB60F1
:100F7400FB681A02BB68134343F0BF6343F40033B6
:100F8400BB60044ABB68D36000BF1437BD465DF83C
:100F9400047B704700ED00E080B400AF044BDB68D5
:100FA4001B0A03F007031846BD465DF8047B70472F
:100FB40000ED00E080B483B000AF03463960FB71FC
:100FC40097F90730002B0ADB3B68DAB20C4997F932
:100FD40007301201D2B20B4483F800230AE03B68C5
:100FE400DAB20849FB7903F00F03043B1201D2B2D1
:100FF4000B441A7600BF0C37BD465DF8047B70477E
:1010040000E100E000ED00E080B489B000AFF860DA
:10101400B9607A60FB6803F00703FB61FB69C3F105
:101024000703042B28BF0423BB61FB690433062B8D
:1010340002D9FB69033B00E000237B614FF0FF32E0
:10104400BB6902FA03F3DA43BB681A407B699A402E
:101054004FF0FF317B6901FA03F3D9437B680B40FE
:10106400134318462437BD465DF8047B70470000DF
:1010740080B582B000AF78607B68013BB3F1807FBC
:1010840001D301230FE00A4A7B68013B53600F211F
:101094004FF0FF30FFF78EFF054B00229A60044BA0
:1010A40007221A60002318460837BD4680BD00BFDA
:1010B40010E000E080B582B000AF78607868FFF798
:1010C40047FF00BF0837BD4680BD80B586B000AF7E
:1010D4000346B9607A60FB7300237B61FFF75CFF12
:1010E40078617A68B9687869FFF78EFF024697F9E4
:1010F4000F3011461846FFF75DFF00BF1837BD4695
:1011040080BD80B582B000AF78607868FFF7B0FF2B
:10111400034618460837BD4680BD000080B588B038
:1011240002AFF8607A601A460B467B8113463B8116
:10113400FFF7DEFE7861FB6893F83D30DBB2202BCD
:1011440040F0E0807B690093192301227049F8681C
:1011540000F092FA0346002B01D00223D3E0FB688F
:1011640093F83C30012B01D10223CCE0FB6801222F
:1011740083F83C20FB681B681B6803F00103012B08
:1011840007D0FB681B681A68FB681B6842F0010201
:101194001A60FB681B681A68FB681B6822F400620B
:1011A4001A60FB68212283F83D20FB68102283F833
:1011B4003E20FB6800221A64FB687A685A62FB6866
:1011C4003A895A85FB685B8D9AB2FB681A85FB687D
:1011D400504ADA6279897B693A6AF86800F0CAF998
:1011E4000346002B01D001238DE000233B61FB6803
:1011F4001B685B693B61FB681B689B693B613B69DE
:1012040066E07A69396AF86800F050FB0346002BFF
:101214000DD0FB681B6C042B07D1FB681B681A6894
:10122400FB681B6842F400721A6001236BE0FB68E0
:101234005B6A1A78FB681B681A61FB685B6A5A1C54
:10124400FB685A62FB685B8D9BB2013B9AB2FB68F8
:101254005A85FB681B8D013B9AB2FB681A85FB68B3
:101264001B685B6903F00403042B1BD1FB681B8D13
:10127400002B17D0FB685B6A1A78FB681B681A613D
:10128400FB685B6A5A1CFB685A62FB685B8D9BB205
:10129400013B9AB2FB685A85FB681B8D013B9AB2ED
:1012A400FB681A857A69396AF86800F047FB0346D7
:1012B400002B0DD0FB681B6C042B07D1FB681B684B
:1012C4001A68FB681B6842F400721A6001231AE072
:1012D400FB681B8D002B94D1FB681B681A68FB68A4
:1012E4001B6842F400721A60FB68202283F83D20D8
:1012F400FB68002283F83E20FB68002283F83C2030
:10130400002300E0022318461837BD4680BD00BF05
:10131400020010000000FFFF80B58AB002AFF86041
:101324007A603B600B467B81FFF7E2FDF8610023A6
:10133400BB61FB6893F83D30DBB2202B40F0118198
:10134400FB690093192301228849F86800F094F995
:101354000346002B01D0022304E1FB6893F83C30E0
:10136400012B01D10223FDE0FB68012283F83C201C
:10137400FB681B681B6803F00103012B07D0FB68A3
:101384001B681A68FB681B6842F001021A60FB685C
:101394001B681A68FB681B6822F400621A60FB6809
:1013A400242283F83D20FB6800221A64FB68704AFB
:1013B400DA62FB681B681A68FB681B6842F4807277
:1013C4001A60FB6900933B6800224FF00111F86832
:1013D40000F052F90346002B0DD0FB681B681B6814
:1013E40003F48073B3F5807F03D1FB684FF400727C
:1013F4001A640323B6E07B89DBB21A46FB681B68D8
:1014040002F0FE021A61FFF773FDF861FB681B68C6
:101414005B6903F00203022B0CBF01230023DBB240
:10142400FB75FB681B685B6903F48063B3F5806F2D
:101434000CBF01230023DBB2BB7525E0FFF758FD89
:101444000246FB69D31A3A689A4202D33B68002BDE
:1014540003D1FB68A02283F83D20FB681B685B690D
:1014640003F00203022B0CBF01230023DBB2FB7544
:10147400FB681B685B6903F48063B3F5806F0CBF82
:1014840001230023DBB2BB75FB6893F83D30DBB26C
:10149400A02B05D0FB7D002B02D1BB7D002BCDD032
:1014A400FB68202283F83D20FB681B685B6903F01E
:1014B4000203022B29D1FB681B681A68FB681B68AE
:1014C40042F400721A6000233B61FB681B685B698D
:1014D4003B61FB681B689B693B613B69FB6900934B
:1014E400192301222149F86800F0C6F80346002BAD
:1014F40001D0012336E0FB68202283F83D20FB68FD
:10150400002283F83C2000232CE0FB681B681A6847
:10151400FB681B6842F400721A60FB681B686FF476
:1015240080625A61FB690093192301220F49F8680C
:1015340000F0A2F80346002B01D0012312E0BB699E
:101544000133BB61BA697B689A42FFF432AFFB682E
:10155400202283F83D20FB68002283F83C200123ED
:1015640000E0022318462037BD4680BD020010006B
:101574000000FFFF80B588B002AFF8607A603B607E
:101584000B467B81FB68DB6A7B617B69082B06D099
:101594007B69012B03D07B6913F5803F08D1FB687D
:1015A4001B681A68FB681B6842F480721A600BE0BF
:1015B400FB681B6B122B07D1FB681B681A68FB685E
:1015C4001B6842F480721A603B6800937B680022B7
:1015D4004FF00111F86800F04FF80346002B0DD0CE
:1015E400FB681B681B6803F48073B3F5807F03D129
:1015F400FB684FF400721A64032335E0FB681B692F
:10160400B3F5804F08D17B89DBB21A46FB681B68AF
:1016140002F0FE021A611BE07B89DB11DBB203F0EE
:101624000603DBB263F00F03DAB2FB681B681A61CE
:101634003B687A680E49F86800F098F80346002B76
:1016440001D0012310E07B89DAB2FB681B681A61C0
:101654003B687A680749F86800F088F80346002B6D
:1016640001D0012300E0002318461837BD4680BD91
:10167400080001000200010080B584B000AFF860EA
:10168400B9603B601346FB7148E03B68B3F1FF3F30
:1016940044D0FFF72DFC0246BB69D31A3A689A423C
:1016A40002D33B68002B39D1BB681B0CDBB2012B86
:1016B4000DD1FB681B685B69DA43BB6813409BB2BE
:1016C400002B0CBF01230023DBB21A460CE0FB689D
:1016D4001B689B69DA43BB6813409BB2002B0CBFA9
:1016E40001230023DBB21A46FB799A4216D1FB6828
:1016F40000221A63FB68202283F83D20FB68002245
:1017040083F83E20FB681B6C43F02002FB681A64DC
:10171400FB68002283F83C20012323E0BB681B0CF8
:10172400DBB2012B0DD1FB681B685B69DA43BB6834
:1017340013409BB2002B0CBF01230023DBB21A46DB
:101744000CE0FB681B689B69DA43BB6813409BB2DF
:10175400002B0CBF01230023DBB21A46FB799A420B
:1017640093D0002318461037BD4680BD80B584B0A1
:1017740000AFF860B9607A603B6071E0FB681B6899
:101784005B6903F48063B3F5806F23D1FB681B6846
:101794001A68FB681B6842F400721A60FB681B68D5
:1017A4006FF480625A61FB6800221A63FB6820228E
:1017B40083F83D20FB68002283F83E20FB681B6C05
:1017C40043F00402FB681A64FB68002283F83C209F
:1017D400012367E07B68B3F1FF3F41D0FFF788FB4B
:1017E40002463B68D31A7A689A4202D37B68002B7C
:1017F40036D1BB681B0CDBB2012B0CD1FB681B6818
:101804005B69DA43BB6813409BB2002B14BF01230E
:101814000023DBB20BE0FB681B689B69DA43BB68FF
:1018240013409BB2002B14BF01230023DBB2002B17
:1018340016D0FB6800221A63FB68202283F83D203F
:10184400FB68002283F83E20FB681B6C43F02002F7
:10185400FB681A64FB68002283F83C20012321E022
:10186400BB681B0CDBB2012B0CD1FB681B685B69EA
:10187400DA43BB6813409BB2002B14BF012300233F
:10188400DBB20BE0FB681B689B69DA43BB6813405F
:101894009BB2002B14BF01230023DBB2002B7FF487
:1018A4006DAF002318461037BD4680BD80B584B0A7
:1018B40000AFF860B9607A6034E0F86800F086F848
:1018C4000346002B01D0012334E0BB68B3F1FF3F92
:1018D40028D0FFF70DFB02467B68D31ABA689A42F8
:1018E40002D3BB68002B1DD1FB681B685B6903F046
:1018F4008003802B16D0FB6800221A63FB68202229
:1019040083F83D20FB68002283F83E20FB681B6CB3
:1019140043F02002FB681A64FB68002283F83C2031
:10192400012307E0FB681B685B6903F08003802BDD
:10193400C3D1002318461037BD4680BD80B584B09E
:1019440000AFF860B9607A6034E0F86800F03EF8FF
:101954000346002B01D0012334E0BB68B3F1FF3F01
:1019640028D0FFF7C5FA02467B68D31ABA689A42B0
:1019740002D3BB68002B1DD1FB681B685B6903F0B5
:101984000403042B16D0FB6800221A63FB68202290
:1019940083F83D20FB68002283F83E20FB681B6C23
:1019A40043F02002FB681A64FB68002283F83C20A1
:1019B400012307E0FB681B685B6903F00403042B45
:1019C400C3D1002318461037BD4680BD80B483B010
:1019D40000AF78607B681B685B6903F48063B3F5D0
:1019E400806F1BD17B681B686FF480625A617B68CF
:1019F40000221A637B68202283F83D207B68002242
:101A040083F83E207B681B6C43F004027B681A64F5
:101A14007B68002283F83C20012300E00023184661
:101A24000C37BD465DF8047B7047000080B586B076
:101A340000AF78607B68002B01D1012367E27B68EB
:101A44001B6803F00103002B75D0884B9B6803F0DF
:101A54000C03042B0CD0854B9B6803F00C03082B60
:101A640012D1824B5B6803F48003B3F5800F0BD172
:101A74007E4B1B6803F40033002B5BD07B685B68F0
:101A8400002B57D1012342E27B685B68B3F5803FAA
:101A940006D1764B1B68754A43F4803313601DE00E
:101AA4007B685B68B3F5A02F0CD1704B1B686F4A41
:101AB40043F4802313606D4B1B686C4A43F48033FA
:101AC40013600BE0694B1B68684A23F4803313608E
:101AD400664B1B68654A23F4802313607B685B684C
:101AE400002B13D0FFF704FA386108E0FFF700FA7F
:101AF40002463B69D31A642B01D9032307E25B4BEB
:101B04001B6803F40033002BF0D014E0FFF7F0F966
:101B1400386108E0FFF7ECF902463B69D31A642BFD
:101B240001D90323F3E1514B1B6803F40033002B69
:101B3400F0D100E000BF7B681B6803F00203002BB8
:101B440063D04A4B9B6803F00C03002B0BD0474B2C
:101B54009B6803F00C03082B1CD1444B5B6803F413
:101B64008003002B16D1414B1B6803F00203002BAA
:101B740005D07B68DB68012B01D00123C7E13B4B17
:101B84001B6823F0F8027B681B69DB0037491343A9
:101B94000B603AE07B68DB68002B20D0344B0122D9
:101BA4001A60FFF7A5F9386108E0FFF7A1F90246CA
:101BB4003B69D31A022B01D90323A8E12B4B1B68E1
:101BC40003F00203002BF0D0284B1B6823F0F8022B
:101BD4007B681B69DB00254913430B6015E0244B2C
:101BE40000221A60FFF784F9386108E0FFF780F9F2
:101BF40002463B69D31A022B01D9032387E11B4B0D
:101C04001B6803F00203002BF0D17B681B6803F010
:101C14000803002B36D07B685B69002B16D0154B6C
:101C240001221A60FFF764F9386108E0FFF760F9F0
:101C340002463B69D31A022B01D9032367E10B4BFC
:101C44005B6F03F00203002BF0D01BE0094B002272
:101C54001A60FFF74DF938610EE0FFF749F90246C3
:101C64003B69D31A022B07D9032350E10038024001
:101C740000004742800E4742884B5B6F03F002032B
:101C8400002BEAD17B681B6803F00403002B00F0EF
:101C940097800023FB75814B1B6C03F08053002B52
:101CA4000FD10023BB607D4B1B6C7C4A43F08053F7
:101CB40013647A4B1B6C03F08053BB60BB68012335
:101CC400FB75774B1B6803F48073002B18D1744B9E
:101CD4001B68734A43F480731360FFF709F9386192
:101CE40008E0FFF705F902463B69D31A022B01D934
:101CF40003230CE16A4B1B6803F48073002BF0D0C0
:101D04007B689B68012B06D1644B1B6F634A43F0CD
:101D1400010313671CE07B689B68052B0CD15F4BA8
:101D24001B6F5E4A43F0040313675C4B1B6F5B4AF3
:101D340043F0010313670BE0584B1B6F574A23F022
:101D440001031367554B1B6F544A23F004031367B5
:101D54007B689B68002B15D0FFF7CAF838610AE04E
:101D6400FFF7C6F802463B69D31A41F28832934220
:101D740001D90323CBE0494B1B6F03F00203002B73
:101D8400EED014E0FFF7B4F838610AE0FFF7B0F8DA
:101D940002463B69D31A41F28832934201D90323A4
:101DA400B5E03E4B1B6F03F00203002BEED1FB7D2D
:101DB400012B05D1394B1B6C384A23F08053136433
:101DC4007B689B69002B00F0A180344B9B6803F077
:101DD4000C03082B5CD07B689B69022B41D1314BEF
:101DE40000221A60FFF784F8386108E0FFF780F8F2
:101DF40002463B69D31A022B01D9032387E0274B00
:101E04001B6803F00073002BF0D17B68DA697B68F0
:101E14001B6A1A437B685B6A9B011A437B689B6A53
:101E24005B08013B1B041A437B68DB6A1B061B49E6
:101E340013434B601B4B01221A60FFF759F83861BA
:101E440008E0FFF755F802463B69D31A022B01D983
:101E540003235CE0114B1B6803F00073002BF0D0EC
:101E640054E0104B00221A60FFF742F8386108E092
:101E7400FFF73EF802463B69D31A022B01D903232C
:101E840045E0064B1B6803F00073002BF0D13DE0E6
:101E94007B689B69012B07D1012338E0003802409D
:101EA40000700040600047421B4B5B68FB607B682E
:101EB4009B69012B28D0FB6803F480027B68DB69F3
:101EC4009A4221D1FB6803F03F027B681B6A9A4265
:101ED4001AD1FA6847F6C07313407A68526A9201BD
:101EE400934211D1FB6803F440327B689B6A5B0820
:101EF400013B1B049A4207D1FB6803F070627B68C4
:101F0400DB6A1B069A4201D0012300E00023184635
:101F14001837BD4680BD00BF0038024080B584B08C
:101F240000AF786039607B68002B01D10123CCE0DD
:101F3400684B1B6803F007033A689A420CD9654B57
:101F44003A68D2B21A70634B1B6803F007033A680D
:101F54009A4201D00123B8E07B681B6803F00203B6
:101F6400002B20D07B681B6803F00403002B05D0F2
:101F7400594B9B68584A43F4E05393607B681B6851
:101F840003F00803002B05D0534B9B68524A43F4DB
:101F940060439360504B9B6823F0F0027B689B681E
:101FA4004D4913438B607B681B6803F00103002BCE
:101FB40044D07B685B68012B07D1474B1B6803F453
:101FC4000033002B19D101237FE07B685B68022B6F
:101FD40003D07B685B68032B07D13F4B1B6803F07E
:101FE4000073002B09D101236FE03B4B1B6803F006
:101FF4000203002B01D1012367E0374B9B6823F0D8
:1020040003027B685B68344913438B60FEF770FFFF
:10201400F8600AE0FEF76CFF0246FB68D31A41F24F
:102024008832934201D903234FE02B4B9B6803F082
:102034000C027B685B689B009A42EBD1254B1B68C2
:1020440003F007033A689A420CD2224B3A68D2B2A0
:102054001A70204B1B6803F007033A689A4201D0B8
:10206400012332E07B681B6803F00403002B08D0D3
:10207400194B9B6823F4E0527B68DB6816491343D1
:102084008B607B681B6803F00803002B09D0124B9C
:102094009B6823F460427B681B69DB000E49134391
:1020A4008B6000F021F802460B4B9B681B0903F080
:1020B4000F030A49CB5C22FA03F3094A1360094B64
:1020C4001B681846FEF7D0FE002318461037BD469D
:1020D40080BD00BF003C024000380240E84E0008CA
:1020E40000000020040000202DE9B04F90B000AFA4
:1020F40000237B630023FB6300233B630023BB6358
:10210400594B9B6803F00C03082B0DD0082B00F2ED
:10211400A180002B02D0042B03D09BE0534BBB6364
:102124009BE0534BBB6398E04F4B5B6803F03F036A
:102134007B634D4B5B6803F48003002B28D04A4B30
:102144005B689B0900223B627A623B6AC3F3080026
:102154000021474B03FB01F2002300FB03F313446C
:10216400434AA0FB0212FA620A46BA62FA6A1344AC
:10217400FB627B6B0022BB61FA61D7E90623D7E9D6
:102184000A01FEF725F802460B461346FB6353E0AB
:10219400354B5B689B0900223B617A613B69C3F361
:1021A400080A4FF0000B52465B464FF000004FF018
:1021B4000001590141EAD261500102460B46B2EBDB
:1021C4000A0863EB0B094FF000024FF000034FEADB
:1021D400891343EA98634FEA8812B2EB080463EB6D
:1021E40009054FF000024FF00003EB0043EA54737B
:1021F400E20014461D4614EB0A033B6045EB0B0357
:102204007B604FF000024FF00003D7E900452946F8
:102214008B02214643EA915321468A02104619460D
:102224007B6B0022BB60FA60D7E90223FDF7D0FF85
:1022340002460B461346FB630B4B5B681B0C03F017
:10224400030301335B003B63FA6B3B6BB2FBF3F3B9
:10225400BB6302E0054BBB6300BFBB6B1846403752
:10226400BD46BDE8B08F00BF003802400024F40032
:1022740040787D0102440346934200D1704703F83D
:10228400011BF9E770B50D4D0D4C641BA41000261D
:10229400A64209D10B4D0C4C00F018F8641BA41095
:1022A4000026A64205D170BD55F8043B9847013677
:1022B400EEE755F8043B98470136F2E7004F000873
:1022C400004F0008004F0008044F0008F8B500BF95
:1022D400F8BC08BC9E467047F8B500BFF8BC08BC03
:0422E4009E4670475B
:1022E80000000000000000000000000000000000E6
:1022F800000000000000000000003FC000000000D7
:10230800000000000000000000007FE00000000066
:102318000000000000000001C000FFF00000000005
:10232800000000000000007FFF00FFF00000000038
:1023380000000000000001E001E1FFF800000000DB
:102348000000000000000F000031FFF8000000004E
:102358000000000000001E000011FFF8000000004F
:102368000000000000007FE003F9FFF0000000001B
:10237800000000000000F03C1F00FFF0000000001B
:10238800000000000001C007F000FFF0000000009E
:10239800000000000003C003E0007FE00000000030
:1023A800000000000006600770001F8000000000A9
:1023B80000000000000E300C1C00000000000000AF
:1023C80000000000000E18380600000000000000A1
:1023D80000000000001C0C7003001000000000004A
:1023E80000000000001C07C001C01E000000000023
:1023F800000000000034038000601B0000000000A3
:10240800000000000024038000301B0000000000D2
:1024180000000000006606E000181100000000003F
:102428000000000000660C70000C11800000000025
:10243800000000000042183800043180000000004D
:10244800000000000043300C00063080000000004F
:102458000000000000C320060003208000000000E8
:102468000000000000C1E0030001E080000000005F
:102478000000000000C1C0018000C0800000000012
:102488000000000000C0C000C000C08000000000C4
:102498000000000000C1C0006001C0800000000012
:1024A8000000000000C1E0003001E08000000000F2
:1024B8000000000000C33000180320800000000066
:1024C80000000000004310000C06318000000000EE
:1024D8000000000000421800060C318000000000D7
:1024E8000000000000660C00039811800000000046
:1024F800000000000066060001F01900000000005E
:10250800000000000024030000F01B000000000091
:10251800000000000034018000F01A0000000000F4
:1025280000000000001C00E001981E0000000000F0
:102538000000000000000070030C1C0000000000F8
:1025480000000000000000180E061C00000000003B
:10255800000000000000000E180318000000000032
:102568000000000000FE0003F001B00000000000C1
:102578000000000001FF8003E000E0000000000010
:102588000000000003FF800F7800C000000000007A
:102598000000000007FFC0FC0FCF80000000000013
:1025A8000000000007FFC7C001FF00000000000096
:1025B8000000000007FFC600001C0000000000002B
:1025C8000000000007FFC78000780000000000003E
:1025D8000000000007FFC1F007C000000000000075
:1025E8000000000007FFC03FFE00000000000000E0
:1025F8000000000003FF8000000000000000000051
:102608000000000001FF00000000000000000000C2
:1026180000000000007E0000000000000000000034
:1026280000000000000000000000000000000000A2
:102638000000000000000000000000000000000092
:102648000F0F8C27F7E1F0C181F9F0FBF9F0F18C5D
:102658001939CE21C63398C181819980E181918C45
:102668003030CF2086330CC181818D804103018CAD
:1026780030304F2086320CC181F198F041F301FCD3
:1026880030304DE087E20CC18181F018438301FCB2
:102698003030CCE086630CC18181B00C4103018CE1
:1026A8001D9FCC608663F8FDF9F999D841F1D98C62
:1026B8000F0F0C208630F0FDF9F98CF041F0F18C09
:1026C8000000000000000000000000000000000002
:1026D80000000000000000000000000000000000F2
:1026E80000000000000000000000000000000000E2
:1026F80000000000000000000000000000000000D2
:1027080000000000000000000000000000000000C1
:1027180000000000000000000000000000000000B1
:1027280000000000000000000000000000000000A1
:102738000000000000000000000000000000000091
:102748000000000000000000000000000000000081
:102758000000000000000000000000000000000071
:102768000000000000000000000000000000000061
:102778000000000000000000000000000000000051
:102788000000000000000000000000000000000041
:102798000000000000000000000000000000000031
:1027A8000000000000000000000000000000000021
:1027B800000000003FF8600000000000000000007A
:1027C8000000001FFFFFF0000000000000000000F4
:1027D8000000007FFFFFC0000000000000000000B4
:1027E800000005FFFFFFE4000000000000000000FB
:1027F80000000FFFFFFF8000000000000000000045
:1028080000000F000FFF00000000000000000000A3
:102818000000060000FF800000000000000000002B
:1028280000001860001FF800000000000000000011
:1028380000003C7800078000000000000000000055
:102848000000306E000000000000000000000000E2
:10285800000050738000000000000000000000002D
:1028680000008000C00005FF0037F000001F800056
:1028780000010000FC0000000007FF8003F03000AA
:1028880000000800380000000000BFFFFFE004005F
:102898000001900060000000000087FFFFFE0000BC
:1028A8000001E00060000000000001FFFFFFC00021
:1028B80000004000600600000000001FFC00080047
:1028C80000000000E006000010008000000000008A
:1028D80000000000600600003001800000000000D9
:1028E8000000000070060000300700000000000033
:1028F800000000007FC60000E00F0000000000009C
:102908000000000F81CC0010E0380000000000003B
:102918000000000FC00886000060000000000000F2
:102928000000001FF620000021C000000000000089
:102938000000001FC00000000000000000000000B0
:102948000000003E0000000004010000000000003C
:10295800000000F80000000048000000000000002F
:10296800000001F0000000007000000000000000FE
:102978000000072000000000F000780000000000C0
:1029880000003C3800000000F00078000000000063
:102998000000783000000001C0007800000000004E
:1029A8000001E0000000000380007000000000004B
:1029B8000003C000000000060000700000000000D6
:1029C800000000000000001C0000300000000000B3
:1029D800000000000000003C000030000000000083
:1029E80000000000000000780000700000000000F7
:1029F80000000000000001E00000F00000000000FE
:102A080000000000000003C00003F0000000000008
:102A18000000000000000600000780000000000021
:102A2800000000000000000000000000000000009E
:102A3800000000000000000000000000000000008E
:102A4800000000000000000000000000000000007E
:102A5800000000000000000000000000000000006E
:102A6800000000000000000000000000000000005E
:102A7800000000000000000000000000000000004E
:102A8800000000000000000000000000000000003E
:102A9800000000000000000000000000000000002E
:102AA800000000000000000000000000000000001E
:102AB800000000000000000000000000000000000E
:102AC80000000000000000000000000000000000FE
:102AD80000000000000000000000000000000000EE
:102AE80000000000000000000000000000000000DE
:102AF80000000000000000000000000000000000CE
:102B080000000000000000000000000000000000BD
:102B180000000000000000000000000000000000AD
:102B2800000000000000000000000000000000009D
:102B3800000000000000000000000000000000008D
:102B4800000000000000000000000000000000007D
:102B5800000000000000000000000000000000006D
:102B6800000000000000000000000000000000005D
:102B7800000000000000000000000000000000004D
:102B8800000000000000000000000000000000003D
:102B9800000000000000000000000000000000002D
:102BA800000000000000000000000000000000001D
:102BB800000000003FF86000000000000000000076
:102BC8000000001FFFFFF0000000000000000000F0
:102BD8000000007FFFFFC0000000000000000000B0
:102BE800000005FFFFFFE4000000000000000000F7
:102BF80000000FFFFFFF8000000000000000000041
:102C080000000F000FFF000000000000000000009F
:102C18000000060000FF8000000000000000000027
:102C280000001860001FF80000000000000000000D
:102C380000003C7800078000000000000000000051
:102C48000000306E000000000000000000000000DE
:102C58000000507380000000000000000000000029
:102C680000008000C00005FF0037F000001F800052
:102C780000010000FC0000000007FF8003F03000A6
:102C880000000800380000000000BFFFFFE004005B
:102C98000001900060000000000087FFFFFE0000B8
:102CA8000001E00060000000000001FFFFFFC0001D
:102CB80000004000600600000000001FFC00080043
:102CC80000000000E0060000100080000000000086
:102CD80000000000600600003001800000000000D5
:102CE800000000007006000030070000000000002F
:102CF800000000007FC60000E00F00000000000098
:102D08000000000F81CC0010E03800000000000037
:102D18000000000FC00886000060000000000000EE
:102D28000000001FF620000021C000000000000085
:102D38000000001FC00000000000000000000000AC
:102D48000000003E00000000040100000000000038
:102D5800000000F80000000048000000000000002B
:102D6800000001F0000000007000000000000000FA
:102D78000000072000000000F000780000000000BC
:102D880000003C3800000000F0007800000000005F
:102D98000000783000000001C0007800000000004A
:102DA8000001E00000000003800070000000000047
:102DB8000003C000000000060000700000000000D2
:102DC800000000000000001C0000300000000000AF
:102DD800000000000000003C00003000000000007F
:102DE80000000000000000780000700000000000F3
:102DF80000000000000001E00000F00000000000FA
:102E080000000000000003C00003F0000000000004
:102E1800000000000000060000078000000000001D
:102E2800000000000000000000000000000000009A
:102E3800000000000000000000000000000000008A
:102E4800000000000000000000000000000000007A
:102E5800000000000000000000000000000000006A
:102E6800000000000000000000000000000000005A
:102E7800000000000000000000000000000000004A
:102E8800000000000000000000000000000000003A
:102E9800000000000000000000000000000000002A
:102EA800000000000000000000000000000000001A
:102EB800000000000000000000000000000000000A
:102EC80000000000000000000000000000000000FA
:102ED80000000000000000000000000000000000EA
:102EE80000000000000000000000000000000000DA
:102EF80000000000000000000000000000000000CA
:102F080000000000000000000000000000000000B9
:102F180000000000000000000000000000000000A9
:102F28000000000000000000000000000000000099
:102F38000000000000000000000000000000000089
:102F48000000000000000000000000000000000079
:102F58000000000000000000000000000000000069
:102F68000000000000000000000000000000000059
:102F78000000000000000000000000000000000049
:102F88000000000000000000000000000000000039
:102F98000000000000000000000000000000000029
:102FA8000000000000000000000000000000000019
:102FB8000000000000060000000000000000000003
:102FC800000000000FFFB00000000000000000003B
:102FD8000000007FFFFC000000000000000000006F
:102FE800000001FFFFF81FC0000000000000000003
:102FF80000000FFFFFFFF8000000000000000000C5
:1030080000001FE01FFFC0000000000000000000DB
:1030180000001E83887F8000000000000000000080
:1030280000003C00000FF00000000000000000005D
:103038000000F8FA0003870000000000000000000C
:103048000000F8FE0000C0000000000000000000C2
:103058000001E0E706003000000000000000FF006B
:1030680000010003CE0007800FF7FFF0000FFC00FF
:1030780000020200DC00007FC007FFFFF1FF8000B4
:1030880000041800780000000000DFFFFFFC0000CB
:103098000007400030000000000043FFFFF0000080
:1030A8000003C000200004001800603FFF800000FB
:1030B800000180005FFFFF00187FA003E000000010
:1030C800000000007FEFFF801CFFA0000000000050
:1030D80000000000601C00000C0060000000000000
:1030E800000000003F1800000E00E0000000000093
:1030F8000000003FC03800000601E00000000000AA
:1031080000000078003C0005FE21A000000000003F
:10311800000000E3FCA3E7F01FFFD0000000000060
:10312800000001803F8018000183080000000000B3
:10313800000003004200000000C306000000000079
:1031480000000F00C40000000023FCF00000000095
:1031580000001E0090000000001103F000000000B5
:1031680000001C0120000000000D00F80000000015
:1031780000007C018000000000078038000000008B
:1031880000007003800000000007C0180000000065
:1031980000000007000000000007C00C000000004D
:1031A8000000000E000000000007C00C0000000036
:1031B8000000001C000000000007800E0000000056
:1031C80000000038000000000007000E00000000AA
:1031D8000000007000000000000E000E000000005B
:1031E800000001E000000000001E000E00000000CA
:1031F8000000078000000000003C001E00000000E6
:10320800000000000000000001FC003E000000007B
:1032180000000000000000000F80003800000000DF
:1032280000000000000000001F0000000000000077
:103238000000000000000000000000000000000086
:103248000000000000000000000000000000000076
:103258000000000000000000000000000000000066
:103268000000000000000000000000000000000056
:103278000000000000000000000000000000000046
:103288000000000000000000000000000000000036
:103298000000000000000000000000000000000026
:1032A8000000000000000000000000000000000016
:1032B8000000000000000000000000000000000006
:1032C80000000000000000000000000000000000F6
:1032D80000000000000000000000000000000000E6
:1032E80000000000000000000000000000000000D6
:1032F80000000000000000000000000000000000C6
:1033080000000000000000000000000000000000B5
:1033180000000000000000000000000000000000A5
:103328000000000000000000000000000000000095
:103338000000000000000000000000000000000085
:103348000000000000000000000000000000000075
:103358000000000000000000000000000000000065
:103368000000000000000000000000000000000055
:103378000000000000000000000000000000000045
:103388000000000000000000000000000000000035
:103398000000000000000000000000000000000025
:1033A8000000000000000000000000000000000015
:1033B8000000000000000000000000000000000005
:1033C80000000000000000000000000000000000F5
:1033D8000000007FF01DC000000000000000000099
:1033E80000001FFFFFFF00000000000000000000B9
:1033F80000001FFFFFFFF0000000000000000000B9
:1034080000001F803FFFFFC0000000000000000018
:1034180000001E8388FFE00000000000000000009C
:10342800000078C0001FF800000000000000000045
:103438000000F1E20003E6000000000000000000C8
:103448000001F1F80000600000000000000000002A
:103458000003418F0C00180000000000000000006D
:10346800000600038C0007800001FFFF80000800B1
:10347800000C0200F800000FC03FFFFFF0183000FA
:10348800000E4000300000000000FFFFFFE1C00018
:10349800000F80003000000000003FFFFFFF0040E9
:1034A80000078000200004000000103FFFFE1E00FF
:1034B800000000005FFDFF00007FF000FFFFE0005C
:1034C800000000007FEFFF8000FFF0000000000018
:1034D80000000000401C0000000010000000000078
:1034E80000000000701800000180180000000000B3
:1034F800000000006030000001801800000000009B
:1035080000000001807E0000F1C01C0000000000E7
:1035180000000007FFFDF5FE0FFFEE0000000000B1
:1035280000000028FBE80E0000100F8000000000DB
:103538000000007E01080000000C070E00000000DB
:10354800000001E001100000000303FF000000007C
:103558000000070001100000000041CF000000003B
:1035680000003C0001900000000011E38000000012
:103578000001F80000A00000000007E1C000000002
:103588000007E00000E00000000003E0E0000000A9
:10359800001F000000E00000000001E070000000D3
:1035A8000000000000E00000000000E03C00000017
:1035B8000000000000C00000000000E00FC0000094
:1035C8000000000000C00000000000E007E000006C
:1035D80000000000008000000000007000E0000013
:1035E80000000000018000000000007000000000E2
:1035F80000000000018000000000007800000000CA
:103608000000000003800000000003C0000000006C
:10361800000000001F00000000000F000000000074
:10362800000000003E00000000001F000000000035
:103638000000000000000000000000000000000082
:103648000000000000000000000000000000000072
:103658000000000000000000000000000000000062
:103668000000000000000000000000000000000052
:103678000000000000000000000000000000000042
:103688000000000000000000000000000000000032
:103698000000000000000000000000000000000022
:1036A8000000000000000000000000000000000012
:1036B8000000000000000000000000000000000002
:1036C80000000000000000000000000000000000F2
:1036D80000000000000000000000000000000000E2
:1036E80000000000000000000000000000000000D2
:1036F80000000000000000000000000000000000C2
:1037080000000000000000000000000000000000B1
:1037180000000000000000000000000000000000A1
:103728000000000000000000000000000000000091
:103738000000000000000000000000000000000081
:103748000000000000000000000000000000000071
:103758000000000000000000000000000000000061
:103768000000000000000000000000000000000051
:103778000000000000000000000000000000000041
:103788000000000000000000000000000000000031
:103798000000000000000000000000000000000021
:1037A8000000000000000000000000000000000011
:1037B8000000000000000000000000000000000001
:1037C80000000000000000000000000000000000F1
:1037D800000003FFF00000000000000000000000EF
:1037E80000000FFFFF800000000000000000000044
:1037F80000001FFFFFFFF0000000000000000000B5
:1038080000001FFFFFFFF0000000000000000000A4
:1038180000001E383FFFFE0000000000000000000E
:103828000000700000FF8880000000000000000019
:103838000000F1E00C5FC000000000000000000084
:103848000001F1F01C4B80000000000000000000A7
:10385800000381BC0C0040000000000000000000D4
:103868000000023F000218001F800007F800000057
:1038780000181807D80001001001FFFFFF800000A2
:10388800001C0000F8000008100027FFFFE00000FF
:10389800001F0000744A10281488007FFFFC0000F5
:1038A800000600002000000000001018FFFFF000D4
:1038B8000000000028000000000010000007F000D1
:1038C8000000000048580008160010000000000022
:1038D800000000004C5B081C36901000000000003F
:1038E800000000004C72091817900000000000004A
:1038F800000000007C300008030000000000000009
:1039080000000000783000031F8003000000000062
:10391800000000004C3E00C00040001800000000FD
:103928000000000080FFC000000F801C00000000A5
:10393800000000010B108000000003BC0000000024
:1039480000000001040840000000003E00000000E4
:1039580000000002100040000000001E00000000EF
:1039680000000004400220000000000F00000000DA
:1039780000000009000120000000000F8000000086
:103988000000001E0000900000000007C0000000BA
:103998000000003C0000780000000007F000000074
:1039A800000000700000380000000007FC00000064
:1039B800000000C00000380000000007FE00000002
:1039C80000000780000018000000000780000000C9
:1039D80000000F0000000C0000000001C000000003
:1039E8000000780000000E0000000000F000000059
:1039F8000000F8000000070000000000F0000000D0
:103A08000000000000000F0000000000300000006F
:103A18000000000000003E00000000000000000060
:103A28000000000000007C00000000000000000012
:103A3800000000000000000000000000000000007E
:103A4800000000000000000000000000000000006E
:103A5800000000000000000000000000000000005E
:103A6800000000000000000000000000000000004E
:103A7800000000000000000000000000000000003E
:103A8800000000000000000000000000000000002E
:103A9800000000000000000000000000000000001E
:103AA800000000000000000000000000000000000E
:103AB80000000000000000000000000000000000FE
:103AC80000000000000000000000000000000000EE
:103AD80000000000000000000000000000000000DE
:103AE80000000000000000000000000000000000CE
:103AF80000000000000000000000000000000000BE
:103B080000000000000000000000000000000000AD
:103B1800000000000000000000000000000000009D
:103B2800000000000000000000000000000000008D
:103B3800000000000000000000000000000000007D
:103B4800000000000000000000000000000000006D
:103B5800000000000000000000000000000000005D
:103B6800000000000000000000000000000000004D
:103B7800000000000000000000000000000000003D
:103B8800000000000000000000000000000000002D
:103B9800000000000000000000000000000000001D
:103BA800000000000000000000000000000000000D
:103BB80000000000000000000000000000000000FD
:103BC8000000007C00000000000000000000000071
:103BD800000001FF8000000000000000000000005D
:103BE800000003FFF80000000000000000000000D3
:103BF800000007FFFFFE00000000000000000000BA
:103C080000000F80FFFFC7C0000000000000000098
:103C180000003E8387FFFC00000000000000000059
:103C280000007CE000FFF800000000000000000039
:103C38000000FCF2001FC2000000000000000000AD
:103C4800000180F80003E000000000000000000010
:103C58000002009E0000E0000000000000000000DC
:103C6800000C030F80001C01800FFFFFFFF800000D
:103C78000006B003C00000700000FFFFFFFF000057
:103C880000078000EC000000000047FFFFFFC000B5
:103C9800000300007C000000000041FFFFF060000E
:103CA80000000000380004000000403FFFFE18003C
:103CB800000000001FFBFF001C7F4000F800C4004C
:103CC800000000003FFDFF800CFFC0000000000066
:103CD80000000000200C000006004000000000006A
:103CE80000000000100C000003002000000000008D
:103CF80000000000180C00000F0030000000000059
:103D0800000000000E0C0001FCC007F000000000DD
:103D18000000000007FDFF9C003FFFF000000000CE
:103D280000000000040FA7C0000007F80000000012
:103D380000000000041BF800000006380000000026
:103D480000000000023408000000061C000000000B
:103D580000000000022304000000070E000000001D
:103D6800000000000220C200000007070000000059
:103D7800000000000240320000000703C0000000FD
:103D88000000000002400D8000000383E0000000F6
:103D98000000000003C003C0000000F87F0000001E
:103DA8000000000003C001E00000003C0F0000001C
:103DB8000000000003800038000000000000000040
:103DC800000000000300000F0000000000000000D9
:103DD8000000000003000007800000000000000051
:103DE8000000000007000001C00000000000000003
:103DF8000000000006000000E000000000000000D5
:103E0800000000003E000000E0000000000000008C
:103E180000000000F8000000200000000000000082
:103E2800000000000000000000000000000000008A
:103E3800000000000000000000000000000000007A
:103E4800000000000000000000000000000000006A
:103E5800000000000000000000000000000000005A
:103E6800000000000000000000000000000000004A
:103E7800000000000000000000000000000000003A
:103E8800000000000000000000000000000000002A
:103E9800000000000000000000000000000000001A
:103EA800000000000000000000000000000000000A
:103EB80000000000000000000000000000000000FA
:103EC80000000000000000000000000000000000EA
:103ED80000000000000000000000000000000000DA
:103EE80000000000000000000000000000000000CA
:103EF80000000000000000000000000000000000BA
:103F080000000000000000000000000000000000A9
:103F18000000000000000000000000000000000099
:103F28000000000000000000000000000000000089
:103F38000000000000000000000000000000000079
:103F48000000000000000000000000000000000069
:103F58000000000000000000000000000000000059
:103F68000000000000000000000000000000000049
:103F78000000000000000000000000000000000039
:103F88000000000000000000000000000000000029
:103F98000000000000000000000000000000000019
:103FA8000000000000000000000000000000000009
:103FB80000000000000000000000000000000000F9
:103FC800000000FFC000000000000000000000002A
:103FD800000001FFF80000000000000000000000E1
:103FE800000003FFFE0000000000000000000000C9
:103FF800000007FFFF800000000000000000000034
:1040080000000783FFE00700000000000000000038
:1040180000001E839FFC0E0000000000000000004E
:1040280000003E3003FFFC0000000000000000001C
:1040380000007CBE003FF00000000000000000000F
:104048000000803E0007FC000000000000000000A7
:104058000001000F0000E000F1F01FE00000000088
:104068000002030300002006000FFFFC0000000010
:1040780000038001800007E00001CFFFFFFFC000C0
:104088000003C000C0000000000081FFFFFFF8002F
:1040980000008000600000003000807FFFFF3E00CD
:1040A80000000000600004003000801FFFFF810056
:1040B800000000003FFFFF00387F8007FE0020005F
:1040C800000000001FFFBF8018FE800000000000F5
:1040D800000000000C01C0001801000000000000F2
:1040E800000000000400C000180E000000000000DE
:1040F800000000000400E0005E03FF000000000074
:10410800000000000400600300E0FF000000000061
:104118000000000003FF7F98000FE7800000000008
:104128000000000000C07FC00001C3800000000044
:1041380000000000002070000001C1C00000000065
:104148000000000000107000000380E00000000084
:104158000000000000086800000300700000000074
:104168000000000000046800000700700000000064
:1041780000000000000238000006007C000000007B
:10418800000000000001F8000007003E00000000E9
:10419800000000000000FE04000700060000000008
:1041A800000000000000FFFFF00700000000000012
:1041B800000000000000701FE00300000000000085
:1041C80000000000000030000000000000000000B7
:1041D80000000000000018000000000000000000BF
:1041E8000000000000000C000000000000000000BB
:1041F8000000000000000E000000000000000000A9
:104208000000000000001C0000000000000000008A
:10421800000000000000F0000000000000000000A6
:10422800000000000001F000000000000000000095
:104238000000000000000000000000000000000076
:104248000000000000000000000000000000000066
:104258000000000000000000000000000000000056
:104268000000000000000000000000000000000046
:104278000000000000000000000000000000000036
:104288000000000000000000000000000000000026
:104298000000000000000000000000000000000016
:1042A8000000000000000000000000000000000006
:1042B80000000000000000000000000000000000F6
:1042C80000000000000000000000000000000000E6
:1042D80000000000000000000000000000000000D6
:1042E80000000000000000000000000000000000C6
:1042F80000000000000000000000000000000000B6
:1043080000000000000000000000000000000000A5
:104318000000000000000000000000000000000095
:104328000000000000000000000000000000000085
:104338000000000000000000000000000000000075
:104348000000000000000000000000000000000065
:104358000000000000000000000000000000000055
:104368000000000000000000000000000000000045
:104378000000000000000000000000000000000035
:104388000000000000000000000000000000000025
:104398000000000000000000000000000000000015
:1043A8000000000000000000000000000000000005
:1043B800000000007E000000000000000000000077
:1043C800000000FFFF800000000000000000000067
:1043D800000003FFFFE000000000000000000000F4
:1043E800000003FFFFF000000000000000000000D4
:1043F800000003B9FFF80000000000000000000002
:10440800000007003FFC0000000000000000000062
:1044180000001F3817FE0000000000000000000028
:1044280000001E3801FF0000000007F8000000002F
:1044380000003C1C0C7FC08000001FFE0000000034
:104448000000203E1C4FFE0000003FFF000000005F
:104458000000804F0C01F8007F00FFFF8000000083
:104468000001840700023804001FFFFFC00000009D
:104478000000F0038C0003C8100303FFE0003000C5
:104488000000F000C8000008100000FFF81FF0004E
:10449800000000006C4A10281488007FFFFF00000D
:1044A80000000000300000004000001FFFFF8000F7
:1044B800000000001800000060000007FFE0000096
:1044C8000000000008400008D0120000FE000000B4
:1044D800000000000C4B081CD098000000000000F1
:1044E800000000000C423118D098000000000000C5
:1044F800000000000C0030088C02000000000000E2
:10450800000000000C00300807F8F8000000000068
:104518000000000007003820007FF00000000000C5
:104528000000000001E01F00003FE0000000000064
:104538000000000000781000003FC00000000000EC
:1045480000000000005C10000079C00000000000BE
:10455800000000000007080001E1800000000000E2
:10456800000000000044080007830000000000006D
:1045780000000000002448F00E07000000000000C2
:1045880000000000002409E01C07000000000000F3
:1045980000000000003C2F803807000000000000E9
:1045A80000000000003FDE003803C00000000000EB
:1045B80000000000000E07003003C00000000000EB
:1045C80000000000000000F0000180000000000072
:1045D800000000000000003E000000000000000095
:1045E800000000000000000E0000000000000000B5
:1045F800000000000000000780000000000000002C
:10460800000000000000000380000000000000001F
:10461800000000000000000380000000000000000F
:104628000000000000000002000000000000000080
:104638000000000000000000000000000000000072
:104648000000000000000000000000000000000062
:104658000000000000000000000000000000000052
:104668000000000000000000000000000000000042
:104678000000000000000000000000000000000032
:104688000000000000000000000000000000000022
:104698000000000000000000000000000000000012
:1046A8000000000000000000000000000000000002
:1046B80000000000000000000000000000000000F2
:1046C80000000000000000000000000000000000E2
:1046D80000000000000000000000000000000000D2
:1046E80000000000000000000000000000000000C2
:1046F80000000000000000000000000000000000B2
:1047080000000000000000000000000000000000A1
:104718000000000000000000000000000000000091
:104728000000000000000000000000000000000081
:104738000000000000000000000000000000000071
:104748000000000000000000000000000000000061
:104758000000000000000000000000000000000051
:104768000000000000000000000000000000000041
:104778000000000000000000000000000000000031
:104788000000000000000000000000000000000021
:104798000000000000000000000000000000000011
:1047A8000000000001F80000000000000000000008
:1047B80000000001BFFF0000000000000000000032
:1047C800000000DFFFFFC000000000000000000044
:1047D800000001FFFFFFE0000000000000000000F3
:1047E800000001FFFFFFE0000000000000000000E3
:1047F800000001C1FFFFF000000000000000000001
:10480800000003201FFEF000000000000000000070
:1048180000000FB81FFE100000000000000000009C
:1048280000000F1C00FFC80000000000000000008E
:104838000000162E0C7FF00000000FFC00000000A6
:104848000000303F1C4F000000003FFE0000000049
:10485800000060270C0040006101FFFF000000001D
:104868000000C70380021804003FFFFF800000001B
:1048780000007C01CC0003E8100F81FFC00000009D
:1048880000007C00C80000081002007FF000000053
:10489800000000006C4A1028D488001FFF000000A8
:1048A8000000000020000000C000000FFFF0000022
:1048B800000000003C00000180020003FFFFFE0032
:1048C800000000001C4000091000000007FFE00085
:1048D800000000001C4B081FB0F0000000000000A2
:1048E800000000001C42311990F000000000000098
:1048F800000000002C003008FC0000000000000050
:10490800000000001E003808FC33C0000000000052
:10491800000000000F0C1800740FE00000000000F9
:10492800000000000DFC1800040F800000000000CB
:104938000000000018781000121F0000000000009E
:1049480000000000418420000F7C000000000000EF
:1049580000000003C00420000FF000000000000069
:1049680000000001800020003F80000000000000DF
:1049780000000000C0034001FF000000000000002C
:10498800000000007002400F0E0000000000000050
:10499800000000003C81C01E0E0000000000000066
:1049A800000000000FF1C01C0E0000000000000015
:1049B800000000000001FFF80000000000000000F7
:1049C800000000000000038000000000000000005C
:1049D80000000000000000000000000000000000CF
:1049E80000000000000000000000000000000000BF
:1049F80000000000000000000000000000000000AF
:104A0800000000000000000000000000000000009E
:104A1800000000000000000000000000000000008E
:104A2800000000000000000000000000000000007E
:104A3800000000000000000000000000000000006E
:104A4800000000000000000000000000000000005E
:104A5800000000000000000000000000000000004E
:104A6800000000000000000000000000000000003E
:104A7800000000000000000000000000000000002E
:104A8800000000000000000000000000000000001E
:104A9800000000000000000000000000000000000E
:104AA80000000000000000000000000000000000FE
:104AB80000000000000000000000000000000000EE
:104AC80000000000000000000000000000000000DE
:104AD80000000000000000000000000000000000CE
:104AE80000000000000000000000000000000000BE
:104AF80000000000000000000000000000000000AE
:104B0800000000000000000000000000000000009D
:104B1800000000000000000000000000000000008D
:104B2800000000000000000000000000000000007D
:104B3800000000000000000000000000000000006D
:104B4800000000000000000000000000000000005D
:104B5800000000000000000000000000000000004D
:104B6800000000000000000000000000000000003D
:104B7800000000000000000000000000000000002D
:104B8800000000000000000000000000000000001D
:104B9800000000000000000000000000000000000D
:104BA80000000000000000000000000000000000FD
:104BB80000000000207FE00000000000000000006E
:104BC8000000003FE7FFEC000000000000000000CC
:104BD800000001FFFFF800000000000000000000D6
:104BE800000001FFFFF9C000000000000000000005
:104BF800000001FBFFFFF8000000000000000000BB
:104C0800000001C21FFFFE000000000000000000BD
:104C1800000003DF8BFFE10000000000000000003F
:104C280000000F8E00FFF8000000000000000000E8
:104C380000000F8F001FC0000000000000000000EF
:104C480000001E0F000300000000031FF00000001A
:104C5800000010838000C00380E01FFFFF80000079
:104C680000002021C0003C78001FFFFFFFE000008B
:104C780000004180E00000000007FFFFFFF800008F
:104C88000000740060000000C0020001FFFE000088
:104C980000003C0030000000C00200000FFF0000D0
:104CA8000000180010000400C002000001FFF0001E
:104CB800000000001FFFFF01807E0000003FE000B1
:104CC800000000003FFEFF8180FE00000003F800A6
:104CD800000000004600C001800C00000000000039
:104CE800000000004600C001C030000000000000C5
:104CF800000000006600C003C18000000000000042
:104D080000000001F618600DF1000000000000002E
:104D18000000003EFFFF6770B900000000000000BF
:104D28000000001FCFE06F805980000000000000E5
:104D3800000000181FC080005F8000000000000015
:104D48000000001800C300007FC000000000000041
:104D58000000000C008C0000FFC0000000000000F4
:104D68000000000E03E0001FFC000000000000002F
:104D78000000000FE380003EFC000000000000007F
:104D880000000003E3C13070700000000000000064
:104D980000000000203FFCE0E000000000000000F0
:104DA80000000000000380E1800000000000000017
:104DB8000000000000000087000000000000000064
:104DC800000000000000001E0000000000000000BD
:104DD800000000000000007C00000000000000004F
:104DE80000000000000000E00000000000000000DB
:104DF80000000000000003C00000000000000000E8
:104E0800000000000000000000000000000000009A
:104E1800000000000000000000000000000000008A
:104E2800000000000000000000000000000000007A
:104E3800000000000000000000000000000000006A
:104E4800000000000000000000000000000000005A
:104E5800000000000000000000000000000000004A
:104E6800000000000000000000000000000000003A
:104E7800000000000000000000000000000000002A
:104E8800000000000000000000000000000000001A
:104E9800000000000000000000000000000000000A
:104EA80000000000000000000000000000000000FA
:104EB80000000000000000000000000000000000EA
:104EC80000000000000000000000000000000000DA
:104ED80000000000000000000000000000000000CA
:104EE8000000000000000000010203040607080992
:084EF8000CB3FF7F0100000074
:044F0000B9010008EB
:044F0400950100080B
:0C4F08000024F400100000000100000074
:0400000508000DD50D
:00000001FF
