:020000040800F2
:10000000000001208D080008F5070008FD07000822
:10001000050800080D080008150800080000000089
:100020000000000000000000000000001D080008A3
:100030002B080008000000003908000847080008E5
:10004000DD080008DD080008DD080008DD080008FC
:10005000DD080008DD080008DD080008DD080008EC
:10006000DD080008DD080008DD080008DD080008DC
:10007000DD080008DD080008DD080008DD080008CC
:10008000DD080008DD080008DD08000800000000A9
:10009000000000000000000000000000DD08000873
:1000A000DD080008DD080008DD080008DD0800089C
:1000B00055080008DD080008DD080008DD08000814
:1000C000DD080008DD080008DD080008DD0800087C
:1000D000DD080008DD080008DD0800080000000059
:1000E000DD080008DD080008DD0800080000000049
:1000F000000000000000000000000000DD08000813
:1001000000000000DD080008DD080008DD08000828
:1001100000000000000000000000000000000000DF
:10012000DD080008DD080008DD080008DD0800081B
:10013000DD080008000000000000000000000000D2
:10014000000000000000000000000000DD080008C2
:10015000DD080008DD080008DD080008DD080008EB
:10016000DD080008DD0800080000000000000000B5
:10017000000000000000000000000000000000007F
:1001800000000000DD080008000000000000000082
:04019000DD0800087E
:1001940010B5054C237833B9044B13B10448AFF3BD
:1001A40000800123237010BD0C000020000000001B
:1001B4004C26000808B5034B1BB103490348AFF3B1
:1001C400008008BD00000000100000204C2600083C
:1001D40053B94AB9002908BF00281CBF4FF0FF31AA
:1001E4004FF0FF3000F06AB9ADF1080C6DE904CEB0
:1001F40000F006F8DDF804E0DDE9022304B07047FE
:100204002DE9F047089D0C46002B4ED194468C45B1
:100214008646B2FA82F262D94AB1C2F12003914011
:1002240020FA03F30CFA02FC194300FA02FE4FEA27
:100234001C471FFA8CF6B1FBF7F44FEA1E4307FB89
:10024400141143EA014304FB06F199420AD91CEB59
:10025400030304F1FF3080F01281994240F20F81D0
:10026400023C6344591A1FFA8EF3B1FBF7F007FB03
:10027400101143EA014300FB06F69E420AD91CEB27
:10028400030300F1FF3180F0FC809E4240F2F980CC
:10029400634402389B1B40EA044000211DB1D34053
:1002A4000022C5E90032BDE8F0878B4205D90DB1C3
:1002B400C5E9000100210846F5E7B3FA83F10029F6
:1002C40046D1A34202D39042C0F0F080861A64EB78
:1002D40003030120002DE6D0C5E90063E3E7002A0B
:1002E40040F09080A1EB0C044FEA1C481FFA8CF7F5
:1002F4000121B4FBF8F64FEA1E4308FB164443EA17
:10030400044307FB06F0984208D91CEB030306F1EB
:10031400FF3402D2984200F2CD8026461C1A1FFAFE
:100324008EF3B4FBF8F008FB104443EA044300FBEB
:1003340007F79F4208D91CEB030300F1FF3402D2F4
:100344009F4200F2B0802046DB1B40EA0640A5E74E
:10035400C1F120068B4022FA06F71F4320FA06FC5F
:1003640004FA01F343EA0C03F44000FA01F8380CF0
:100374004FEA1349B4FBF0FE1FFA87FC00FB1E444E
:1003840049EA04440EFB0CF9A14502FA01F20AD928
:100394003C190EF1FF3A80F08480A14540F281803F
:1003A400AEF1020E3C44A4EB09041FFA83F9B4FB3A
:1003B400F0F300FB134449EA044403FB0CFCA4459A
:1003C40007D93C1903F1FF3067D2A44565D9023B34
:1003D4003C4443EA0E40A0FB0293A4EB0C049C4271
:1003E400CE469C4651D34ED055B1B8EB0E0364EBC8
:1003F4000C0404FA06F6CB401E43CC40C5E9006465
:10040400002150E7C2F1200320FA03F10CFA02FCA8
:1004140024FA03F394400C434FEA1C4800FA02FE0A
:100424001FFA8CF7B3FBF8F008FB1031230C43EAF6
:10043400014300FB07F1994208D91CEB030300F1C7
:10044400FF362CD299422AD9023863445B1AA4B2EB
:10045400B3FBF8F108FB113344EA034401FB07F34F
:10046400A34208D91CEB040401F1FF3613D2A342C2
:1004740011D902396444E41A41EA004139E70446D7
:10048400F0E6084606E7C845AED2B9EB020E63EBC8
:10049400070C0138A8E73146EDE7034699E73046F3
:1004A400D4E7D6467FE7634402384DE70646234641
:1004B40008460FE7023E634430E700BF704700BFC1
:1004C40080B500AF00F00AFA00F00CF800F0EAF88A
:1004D40000F072F80021024801F0D4F900BFFDE7F2
:1004E4002800002080B594B000AF07F1200330222B
:1004F4000021184602F07CF807F10C0300221A6070
:100504005A609A60DA601A610023BB60284B1B6C46
:10051400274A43F080531364254B1B6C03F080532C
:10052400BB60BB6800237B60224B1B6823F4404301
:10053400204A43F4004313601E4B1B6803F44043FA
:100544007B607B6802233B620123FB6210233B63D5
:100554000223BB630023FB6308233B6454237B64B3
:100564000223BB640423FB6407F12003184600F054
:10057400BDFC0346002B01D000F0AEF80F23FB6056
:1005840002233B6100237B614FF48053BB61002352
:10059400FB6107F10C030221184600F01FFF03461C
:1005A400002B01D000F098F800BF5037BD4680BD45
:1005B400003802400070004080B58EB000AF07F1F3
:1005C400280300221A605A609A60DA6007F1200357
:1005D40000221A605A603B1D00221A605A609A6019
:1005E400DA601A615A619A612D4B4FF080421A60A9
:1005F4002B4B63225A602A4B00229A60284B4FF4FB
:100604007A72DA60264B00221A61254B00229A6125
:10061400234801F08FF80346002B01D000F05CF86A
:100624004FF48053BB6207F1280319461C4801F0BC
:100634008BFB0346002B01D000F04EF8184801F064
:10064400C8F80346002B01D000F046F800233B62B3
:1006540000237B6207F120031946114801F046FF8D
:100664000346002B01D000F037F860237B604FF481
:10067400FA73BB600023FB6000237B613B1D0022F7
:100684001946074801F09EFA0346002B01D000F0FA
:1006940023F8034800F074F800BF3837BD4680BD26
:1006A4002800002080B483B000AF00237B60094B96
:1006B4001B6B084A43F001031363064B1B6B03F0E7
:1006C40001037B607B6800BF0C37BD465DF8047B8B
:1006D400704700BF0038024080B400AF72B600BF5C
:1006E40000BFFDE780B483B000AF00237B60104BF4
:1006F4005B6C0F4A43F4804353640D4B5B6C03F40F
:1007040080437B607B6800233B60094B1B6C084A79
:1007140043F080531364064B1B6C03F080533B601F
:100724003B6800BF0C37BD465DF8047B704700BFD3
:100734000038024080B584B000AF78607B681B68E5
:10074400B3F1804F15D10023FB600C4B1B6C0B4A9B
:1007540043F001031364094B1B6C03F00103FB60BA
:10076400FB68002200211C2000F005FA1C2000F088
:100774001EFA00BF1037BD4680BD00BF00380240DE
:1007840080B588B000AF786007F10C0300221A60CE
:100794005A609A60DA601A617B681B68B3F1804F13
:1007A4001DD10023BB60104B1B6B0F4A43F00103A8
:1007B40013630D4B1B6B03F00103BB60BB68202369
:1007C400FB6002233B6100237B610023BB610123A7
:1007D400FB6107F10C031946044800F003FA00BF5B
:1007E4002037BD4680BD00BF0038024000000240F3
:1007F40080B400AF00BFFDE780B400AF00BFFDE7E9
:1008040080B400AF00BFFDE780B400AF00BFFDE7D8
:1008140080B400AF00BFFDE780B400AF00BFBD46A9
:100824005DF8047B704780B400AF00BFBD465DF83F
:10083400047B704780B400AF00BFBD465DF8047B05
:10084400704780B500AF00F09BF800BF80BD00008A
:1008540080B500AF024801F0C5F800BF80BD00BFFD
:100864002800002080B400AF064BD3F88830054A36
:1008740043F47003C2F8883000BFBD465DF8047BC2
:10088400704700BF00ED00E0DFF834D0FFF7EAFF67
:100894000C480D490D4A002302E0D458C4500433D7
:1008A400C4188C42F9D30A4A0A4C002301E01360AD
:1008B4000432A242FBD301F0A3FEFFF701FE70470E
:1008C40000000120000000200C0000208426000805
:1008D4000C00002074000020FEE7000080B500AF8B
:1008E4000E4B1B680D4A43F4007313600B4B1B68DB
:1008F4000A4A43F480631360084B1B68074A43F4B5
:1009040080731360032000F02BF90F2000F008F827
:10091400FFF7E8FE0023184680BD00BF003C0240FC
:1009240080B582B000AF7860124B1A68124B1B7806
:1009340019464FF47A73B3FBF1F3B2FBF3F31846A1
:1009440000F043F90346002B01D001230EE07B683D
:100954000F2B0AD8002279684FF0FF3000F00BF912
:10096400064A7B681360002300E001231846083719
:10097400BD4680BD000000200800002004000020C7
:1009840080B400AF064B1B781A46064B1B68134411
:10099400044A136000BFBD465DF8047B704700BF86
:1009A400080000207000002080B400AF034B1B68D7
:1009B4001846BD465DF8047B704700BF70000020F8
:1009C40080B485B000AF78607B6803F00703FB60F8
:1009D4000C4BDB68BB60BA684FF6FF031340BB6087
:1009E400FB681A02BB68134343F0BF6343F400334C
:1009F400BB60044ABB68D36000BF1437BD465DF8D2
:100A0400047B704700ED00E080B400AF044BDB686A
:100A14001B0A03F007031846BD465DF8047B7047C4
:100A240000ED00E080B483B000AF0346FB7197F99A
:100A34000730002B0BDBFB7903F01F02074997F902
:100A440007305B09012000FA02F241F8232000BFBD
:100A54000C37BD465DF8047B704700BF00E100E041
:100A640080B483B000AF03463960FB7197F9073057
:100A7400002B0ADB3B68DAB20C4997F90730120104
:100A8400D2B20B4483F800230AE03B68DAB2084987
:100A9400FB7903F00F03043B1201D2B20B441A7624
:100AA40000BF0C37BD465DF8047B704700E100E0F1
:100AB40000ED00E080B489B000AFF860B9607A60FE
:100AC400FB6803F00703FB61FB69C3F10703042B15
:100AD40028BF0423BB61FB690433062B02D9FB69DD
:100AE400033B00E000237B614FF0FF32BB6902FA55
:100AF40003F3DA43BB681A407B699A404FF0FF3135
:100B04007B6901FA03F3D9437B680B40134318460E
:100B14002437BD465DF8047B7047000080B582B081
:100B240000AF78607B68013BB3F1807F01D3012380
:100B34000FE00A4A7B68013B53600F214FF0FF30FE
:100B4400FFF78EFF054B00229A60044B07221A60C0
:100B5400002318460837BD4680BD00BF10E000E002
:100B640080B582B000AF78607868FFF729FF00BFD6
:100B74000837BD4680BD80B586B000AF0346B96076
:100B84007A60FB7300237B61FFF73EFF78617A682C
:100B9400B9687869FFF78EFF024697F90F3011465E
:100BA4001846FFF75DFF00BF1837BD4680BD80B50E
:100BB40082B000AF0346FB7197F907301846FFF780
:100BC40031FF00BF0837BD4680BD80B582B000AF9D
:100BD40078607868FFF7A2FF034618460837BD46D9
:100BE40080BD000080B489B000AF78603960002314
:100BF4007B6100233B610023BB610023FB6159E15E
:100C04000122FB6902FA03F37B613B681B687A6982
:100C140013403B613A697B699A4240F048813B68E2
:100C24005B6803F00303012B05D03B685B6803F0AA
:100C34000303022B30D17B689B68BB61FB695B00BB
:100C4400032202FA03F3DB43BA691340BB613B6836
:100C5400DA68FB695B0002FA03F3BA691343BB6108
:100C64007B68BA699A607B685B68BB610122FB6937
:100C740002FA03F3DB43BA691340BB613B685B6868
:100C84001B0903F00102FB6902FA03F3BA69134377
:100C9400BB617B68BA695A603B685B6803F0030315
:100CA400032B17D07B68DB68BB61FB695B00032205
:100CB40002FA03F3DB43BA691340BB613B689A68E9
:100CC400FB695B0002FA03F3BA691343BB617B68F7
:100CD400BA69DA603B685B6803F00303022B23D133
:100CE400FB69DA087B68083253F82230BB61FB6980
:100CF40003F007039B000F2202FA03F3DB43BA69F4
:100D04001340BB613B681A69FB6903F007039B004E
:100D140002FA03F3BA691343BB61FB69DA087B681F
:100D24000832B96943F822107B681B68BB61FB6910
:100D34005B00032202FA03F3DB43BA691340BB618D
:100D44003B685B6803F00302FB695B0002FA03F390
:100D5400BA691343BB617B68BA691A603B685B6814
:100D640003F44033002B00F0A2800023FB60574BB8
:100D74005B6C564A43F480435364544B5B6C03F4FA
:100D84008043FB60FB68524AFB699B08023352F8BC
:100D94002330BB61FB6903F003039B000F2202FABB
:100DA40003F3DB43BA691340BB617B68494A93424E
:100DB40019D07B68484A934213D07B68474A9342D0
:100DC4000DD07B68464A934207D07B68454A9342DC
:100DD40001D1042308E0072306E0032304E00223EF
:100DE40002E0012300E00023FA6902F0030292000A
:100DF4009340BA691343BB613549FB699B080233CD
:100E0400BA6941F82320384B9B68BB613B69DB43DB
:100E1400BA691340BB613B685B6803F48013002B21
:100E240003D0BA693B691343BB612F4ABB69936022
:100E34002D4BDB68BB613B69DB43BA691340BB6183
:100E44003B685B6803F40013002B03D0BA693B6969
:100E54001343BB61244ABB69D360234B5B68BB610A
:100E64003B69DB43BA691340BB613B685B6803F4CD
:100E74000033002B03D0BA693B691343BB611A4AA0
:100E8400BB695360184B1B68BB613B69DB43BA69A0
:100E94001340BB613B685B6803F48033002B03D0D1
:100EA400BA693B691343BB610F4ABB691360FB69B1
:100EB4000133FB61FB690F2B7FF6A2AE00BF00BFBD
:100EC4002437BD465DF8047B704700BF00380240FC
:100ED40000380140000002400004024000080240C3
:100EE400000C024000100240003C014080B586B076
:100EF40000AF78607B68002B01D1012367E27B6837
:100F04001B6803F00103002B75D0884B9B6803F02A
:100F14000C03042B0CD0854B9B6803F00C03082BAB
:100F240012D1824B5B6803F48003B3F5800F0BD1BD
:100F34007E4B1B6803F40033002B5BD07B685B683B
:100F4400002B57D1012342E27B685B68B3F5803FF5
:100F540006D1764B1B68754A43F4803313601DE059
:100F64007B685B68B3F5A02F0CD1704B1B686F4A8C
:100F740043F4802313606D4B1B686C4A43F4803345
:100F840013600BE0694B1B68684A23F480331360D9
:100F9400664B1B68654A23F4802313607B685B6897
:100FA400002B13D0FFF700FD386108E0FFF7FCFCCD
:100FB40002463B69D31A642B01D9032307E25B4B36
:100FC4001B6803F40033002BF0D014E0FFF7ECFCB3
:100FD400386108E0FFF7E8FC02463B69D31A642B4A
:100FE40001D90323F3E1514B1B6803F40033002BB5
:100FF400F0D100E000BF7B681B6803F00203002B04
:1010040063D04A4B9B6803F00C03002B0BD0474B77
:101014009B6803F00C03082B1CD1444B5B6803F45E
:101024008003002B16D1414B1B6803F00203002BF5
:1010340005D07B68DB68012B01D00123C7E13B4B62
:101044001B6823F0F8027B681B69DB0037491343F4
:101054000B603AE07B68DB68002B20D0344B012224
:101064001A60FFF7A1FC386108E0FFF79DFC024617
:101074003B69D31A022B01D90323A8E12B4B1B682C
:1010840003F00203002BF0D0284B1B6823F0F80276
:101094007B681B69DB00254913430B6015E0244B77
:1010A40000221A60FFF780FC386108E0FFF77CFC3F
:1010B40002463B69D31A022B01D9032387E11B4B58
:1010C4001B6803F00203002BF0D17B681B6803F05C
:1010D4000803002B36D07B685B69002B16D0154BB8
:1010E40001221A60FFF760FC386108E0FFF75CFC3E
:1010F40002463B69D31A022B01D9032367E10B4B48
:101104005B6F03F00203002BF0D01BE0094B0022BD
:101114001A60FFF749FC38610EE0FFF745FC024610
:101124003B69D31A022B07D9032350E1003802404C
:1011340000004742800E4742884B5B6F03F0020376
:10114400002BEAD17B681B6803F00403002B00F03A
:1011540097800023FB75814B1B6C03F08053002B9D
:101164000FD10023BB607D4B1B6C7C4A43F0805342
:1011740013647A4B1B6C03F08053BB60BB68012380
:10118400FB75774B1B6803F48073002B18D1744BE9
:101194001B68734A43F480731360FFF705FC3861DE
:1011A40008E0FFF701FC02463B69D31A022B01D980
:1011B40003230CE16A4B1B6803F48073002BF0D00B
:1011C4007B689B68012B06D1644B1B6F634A43F019
:1011D400010313671CE07B689B68052B0CD15F4BF4
:1011E4001B6F5E4A43F0040313675C4B1B6F5B4A3F
:1011F40043F0010313670BE0584B1B6F574A23F06E
:1012040001031367554B1B6F544A23F00403136700
:101214007B689B68002B15D0FFF7C6FB38610AE09A
:10122400FFF7C2FB02463B69D31A41F2883293426C
:1012340001D90323CBE0494B1B6F03F00203002BBE
:10124400EED014E0FFF7B0FB38610AE0FFF7ACFB27
:1012540002463B69D31A41F28832934201D90323EF
:10126400B5E03E4B1B6F03F00203002BEED1FB7D78
:10127400012B05D1394B1B6C384A23F0805313647E
:101284007B689B69002B00F0A180344B9B6803F0C2
:101294000C03082B5CD07B689B69022B41D1314B3A
:1012A40000221A60FFF780FB386108E0FFF77CFB3F
:1012B40002463B69D31A022B01D9032387E0274B4B
:1012C4001B6803F00073002BF0D17B68DA697B683C
:1012D4001B6A1A437B685B6A9B011A437B689B6A9F
:1012E4005B08013B1B041A437B68DB6A1B061B4932
:1012F40013434B601B4B01221A60FFF755FB386107
:1013040008E0FFF751FB02463B69D31A022B01D9CF
:1013140003235CE0114B1B6803F00073002BF0D037
:1013240054E0104B00221A60FFF73EFB386108E0DE
:10133400FFF73AFB02463B69D31A022B01D9032378
:1013440045E0064B1B6803F00073002BF0D13DE031
:101354007B689B69012B07D1012338E000380240E8
:1013640000700040600047421B4B5B68FB607B6879
:101374009B69012B28D0FB6803F480027B68DB693E
:101384009A4221D1FB6803F03F027B681B6A9A42B0
:101394001AD1FA6847F6C07313407A68526A920108
:1013A400934211D1FB6803F440327B689B6A5B086B
:1013B400013B1B049A4207D1FB6803F070627B680F
:1013C400DB6A1B069A4201D0012300E00023184681
:1013D4001837BD4680BD00BF0038024080B584B0D8
:1013E40000AF786039607B68002B01D10123CCE029
:1013F400684B1B6803F007033A689A420CD9654BA3
:101404003A68D2B21A70634B1B6803F007033A6858
:101414009A4201D00123B8E07B681B6803F0020301
:10142400002B20D07B681B6803F00403002B05D03D
:10143400594B9B68584A43F4E05393607B681B689C
:1014440003F00803002B05D0534B9B68524A43F426
:1014540060439360504B9B6823F0F0027B689B6869
:101464004D4913438B607B681B6803F00103002B19
:1014740044D07B685B68012B07D1474B1B6803F49E
:101484000033002B19D101237FE07B685B68022BBA
:1014940003D07B685B68032B07D13F4B1B6803F0C9
:1014A4000073002B09D101236FE03B4B1B6803F051
:1014B4000203002B01D1012367E0374B9B6823F023
:1014C40003027B685B68344913438B60FFF76CFA53
:1014D400F8600AE0FFF768FA0246FB68D31A41F2A3
:1014E4008832934201D903234FE02B4B9B6803F0CE
:1014F4000C027B685B689B009A42EBD1254B1B680E
:1015040003F007033A689A420CD2224B3A68D2B2EB
:101514001A70204B1B6803F007033A689A4201D003
:10152400012332E07B681B6803F00403002B08D01E
:10153400194B9B6823F4E0527B68DB68164913431C
:101544008B607B681B6803F00803002B09D0124BE7
:101554009B6823F460427B681B69DB000E491343DC
:101564008B6000F021F802460B4B9B681B0903F0CB
:101574000F030A49CB5C22FA03F3094A1360094BAF
:101584001B681846FFF7CCF9002318461037BD46F0
:1015940080BD00BF003C02400038024064260008C1
:1015A40000000020040000202DE9B04F90B000AFEF
:1015B40000237B630023FB6300233B630023BB63A3
:1015C400594B9B6803F00C03082B0DD0082B00F239
:1015D400A180002B02D0042B03D09BE0534BBB63B0
:1015E4009BE0534BBB6398E04F4B5B6803F03F03B6
:1015F4007B634D4B5B6803F48003002B28D04A4B7C
:101604005B689B0900223B627A623B6AC3F3080071
:101614000021474B03FB01F2002300FB03F31344B7
:10162400434AA0FB0212FA620A46BA62FA6A1344F7
:10163400FB627B6B0022BB61FA61D7E90623D7E921
:101644000A01FEF7C5FD02460B461346FB6353E051
:10165400354B5B689B0900223B617A613B69C3F3AC
:10166400080A4FF0000B52465B464FF000004FF063
:101674000001590141EAD261500102460B46B2EB26
:101684000A0863EB0B094FF000024FF000034FEA26
:10169400891343EA98634FEA8812B2EB080463EBB8
:1016A40009054FF000024FF00003EB0043EA5473C6
:1016B400E20014461D4614EB0A033B6045EB0B03A2
:1016C4007B604FF000024FF00003D7E90045294644
:1016D4008B02214643EA915321468A021046194659
:1016E4007B6B0022BB60FA60D7E90223FEF770FD32
:1016F40002460B461346FB630B4B5B681B0C03F063
:10170400030301335B003B63FA6B3B6BB2FBF3F304
:10171400BB6302E0054BBB6300BFBB6B184640379D
:10172400BD46BDE8B08F00BF003802400024F4007D
:1017340040787D0180B582B000AF78607B68002B73
:1017440001D1012341E07B6893F83D30DBB2002BEB
:1017540006D17B68002283F83C207868FEF7EAFF14
:101764007B68022283F83D207B681A687B68043317
:101774001946104600F0E2FB7B68012283F84620FC
:101784007B68012283F83E207B68012283F83F2096
:101794007B68012283F840207B68012283F8412082
:1017A4007B68012283F842207B68012283F843206E
:1017B4007B68012283F844207B68012283F845205A
:1017C4007B68012283F83D20002318460837BD4674
:1017D40080BD80B582B000AF78607B68002B01D1FA
:1017E400012341E07B6893F83D30DBB2002B06D146
:1017F4007B68002283F83C20786800F039F87B6825
:10180400022283F83D207B681A687B6804331946FA
:10181400104600F093FB7B68012283F846207B6826
:10182400012283F83E207B68012283F83F207B68F5
:10183400012283F840207B68012283F841207B68E1
:10184400012283F842207B68012283F843207B68CD
:10185400012283F844207B68012283F845207B68B9
:10186400012283F83D20002318460837BD4680BD79
:1018740080B483B000AF786000BF0C37BD465DF81C
:10188400047B704780B584B000AF786039603B68F2
:10189400002B09D17B6893F83E30DBB2012B14BFD7
:1018A40001230023DBB222E03B68042B09D17B68CF
:1018B40093F83F30DBB2012B14BF01230023DBB2CA
:1018C40015E03B68082B09D17B6893F84030DBB204
:1018D400012B14BF01230023DBB208E07B6893F8DB
:1018E4004130DBB2012B14BF01230023DBB2002BF8
:1018F40001D0012368E03B68002B04D17B680222FD
:1019040083F83E2013E03B68042B04D17B68022259
:1019140083F83F200BE03B68082B04D17B6802224C
:1019240083F8402003E07B68022283F841207B682F
:101934001B6801223968184600F0B2FD7B681B68F9
:10194400234A934207D17B681B685A6C7B681B68E7
:1019540042F400425A647B681B681D4A934218D0C3
:101964007B681B68B3F1804F13D07B681B68194AEE
:1019740093420ED07B681B68174A934209D07B6858
:101984001B68164A934204D07B681B68144A93422E
:1019940011D17B681B689B6803F00703FB60FB683D
:1019A400062B10D07B681B681A687B681B6842F0A2
:1019B40001021A6007E07B681B681A687B681B6871
:1019C40042F001021A60002318461037BD4680BD5C
:1019D400000001400004004000080040000C0040EA
:1019E4000040014080B584B000AF78607B681B681C
:1019F400DB68FB607B681B681B69BB60BB6803F02A
:101A04000203002B20D0FB6803F00203002B1BD041
:101A14007B681B686FF002021A617B6801221A77E7
:101A24007B681B689B6903F00303002B03D0786871
:101A340000F065FA05E0786800F057FA786800F07D
:101A440068FA7B6800221A77BB6803F00403002B52
:101A540020D0FB6803F00403002B1BD07B681B68B9
:101A64006FF004021A617B6802221A777B681B6894
:101A74009B6903F44073002B03D0786800F03FFAAD
:101A840005E0786800F031FA786800F042FA7B6883
:101A940000221A77BB6803F00803002B20D0FB68F0
:101AA40003F00803002B1BD07B681B686FF008024F
:101AB4001A617B6804221A777B681B68DB6903F070
:101AC4000303002B03D0786800F019FA05E0786866
:101AD40000F00BFA786800F01CFA7B6800221A7791
:101AE400BB6803F01003002B20D0FB6803F0100345
:101AF400002B1BD07B681B686FF010021A617B6897
:101B040008221A777B681B68DB6903F44073002B97
:101B140003D0786800F0F3F905E0786800F0E5F99F
:101B2400786800F0F6F97B6800221A77BB6803F046
:101B34000103002B0CD0FB6803F00103002B07D03A
:101B44007B681B686FF001021A61786800F0C3F9C2
:101B5400BB6803F08003002B0CD0FB6803F0800308
:101B6400002B07D07B681B686FF080021A617868CD
:101B740000F034FDBB6803F04003002B0CD0FB687D
:101B840003F04003002B07D07B681B686FF0400212
:101B94001A61786800F0C7F9BB6803F02003002BD2
:101BA4000CD0FB6803F02003002B07D07B681B6874
:101BB4006FF020021A61786800F006FD00BF10374C
:101BC400BD4680BD80B586B000AFF860B9607A606C
:101BD4000023FB75FB6893F83C30012B01D10223F1
:101BE400AEE0FB68012283F83C207B680C2B00F2FA
:101BF4009F8001A252F823F0311C0008351D000813
:101C0400351D0008351D0008711C0008351D00082D
:101C1400351D0008351D0008B31C0008351D0008DB
:101C2400351D0008351D0008F31C0008FB681B68FF
:101C3400B968184600F00EFAFB681B689A69FB68DD
:101C44001B6842F008029A61FB681B689A69FB688A
:101C54001B6822F004029A61FB681B689969BB68DF
:101C64001A69FB681B680A439A6164E0FB681B6895
:101C7400B968184600F054FAFB681B689A69FB6857
:101C84001B6842F400629A61FB681B689A69FB68EE
:101C94001B6822F480629A61FB681B689969BB68BF
:101CA4001B691A02FB681B680A439A6143E0FB68DC
:101CB4001B68B968184600F09FFAFB681B68DA696C
:101CC400FB681B6842F00802DA61FB681B68DA698A
:101CD400FB681B6822F00402DA61FB681B68D9699F
:101CE400BB681A69FB681B680A43DA6123E0FB6876
:101CF4001B68B968184600F0E9FAFB681B68DA69E2
:101D0400FB681B6842F40062DA61FB681B68DA69ED
:101D1400FB681B6822F48062DA61FB681B68D9697E
:101D2400BB681B691A02FB681B680A43DA6102E09C
:101D34000123FB7500BFFB68002283F83C20FB7D78
:101D440018461837BD4680BD80B584B000AF7860B2
:101D540039600023FB737B6893F83C30012B01D17D
:101D64000223B4E07B68012283F83C207B680222D2
:101D740083F83D207B681B689B68BB60BB6823F0CD
:101D84007703BB60BB6823F47F43BB607B681B683D
:101D9400BA689A603B681B68B3F5005F3ED0B3F540
:101DA400005F00F28780B3F5805F00F08680B3F5B2
:101DB400805F7FD8702B1AD0702B7BD8602B50D0CB
:101DC400602B77D8502B3CD0502B73D8402B58D055
:101DD400402B6FD8302B64D0302B6BD8202B60D0A5
:101DE400202B67D8002B5CD0102B5AD062E07B6884
:101DF40018683B6899683B685A683B68DB6800F080
:101E04002FFB7B681B689B68BB60BB6843F0770350
:101E1400BB607B681B68BA689A604FE07B6818688F
:101E24003B6899683B685A683B68DB6800F018FBBC
:101E34007B681B689A687B681B6842F480429A60DE
:101E44003CE07B6818683B6859683B68DB681A4665
:101E540000F08CFA7B681B685021184600F0E5FA04
:101E64002CE07B6818683B6859683B68DB681A4655
:101E740000F0ABFA7B681B686021184600F0D5FAC5
:101E84001CE07B6818683B6859683B68DB681A4645
:101E940000F06CFA7B681B684021184600F0C5FA14
:101EA4000CE07B681A683B681B681946104600F012
:101EB400BCFA03E00123FB7300E000BF7B6801224E
:101EC40083F83D207B68002283F83C20FB7B184686
:101ED4001037BD4680BD80B483B000AF786000BFCA
:101EE4000C37BD465DF8047B704780B483B000AF07
:101EF400786000BF0C37BD465DF8047B704780B442
:101F040083B000AF786000BF0C37BD465DF8047B3A
:101F1400704780B483B000AF786000BF0C37BD4613
:101F24005DF8047B704780B483B000AF786000BF75
:101F34000C37BD465DF8047B7047000080B485B063
:101F440000AF786039607B681B68FB607B683A4A45
:101F540093420FD07B68B3F1804F0BD07B68374A34
:101F6400934207D07B68364A934203D07B68354A54
:101F7400934208D1FB6823F07003FB603B685B6805
:101F8400FA681343FB607B682B4A93421BD07B683F
:101F9400B3F1804F17D07B68284A934213D07B68F3
:101FA400274A93420FD07B68264A93420BD07B6822
:101FB400254A934207D07B68244A934203D07B6826
:101FC400234A934208D1FB6823F44073FB603B68C7
:101FD400DB68FA681343FB60FB6823F080023B680C
:101FE4005B691343FB607B68FA681A603B689A6814
:101FF4007B68DA623B681A687B689A627B680E4A7F
:10200400934203D13B681A697B681A637B68012297
:102014005A617B681B6903F00103012B05D17B68BE
:102024001B6923F001027B681A6100BF1437BD46A7
:102034005DF8047B704700BF0000014000040040CD
:1020440000080040000C00400040014000440140F2
:102054000048014080B487B000AF786039607B6885
:102064001B6A7B617B681B6A23F001027B681A622E
:102074007B685B683B617B689B69FB60FB6823F062
:102084007003FB60FB6823F00303FB603B681B6881
:10209400FA681343FB607B6923F002037B613B68AE
:1020A4009B687A6913437B617B681C4A93420CD119
:1020B4007B6923F008037B613B68DB687A6913431F
:1020C4007B617B6923F004037B617B68134A934241
:1020D40011D13B6923F480733B613B6923F40073A2
:1020E4003B613B685B693A6913433B613B689B69AD
:1020F4003A6913433B617B683A695A607B68FA68C2
:102104009A613B685A687B685A637B687A691A6289
:1021140000BF1C37BD465DF8047B704700000140DA
:1021240080B487B000AF786039607B681B6A7B61DC
:102134007B681B6A23F010027B681A627B685B6809
:102144003B617B689B69FB60FB6823F4E043FB60B5
:10215400FB6823F44073FB603B681B681B02FA684E
:102164001343FB607B6923F020037B613B689B681E
:102174001B017A6913437B617B681E4A93420DD12C
:102184007B6923F080037B613B68DB681B017A6910
:1021940013437B617B6923F040037B617B68154AB1
:1021A400934213D13B6923F480633B613B6923F47D
:1021B40000633B613B685B699B003A6913433B6185
:1021C4003B689B699B003A6913433B617B683A69AE
:1021D4005A607B68FA689A613B685A687B689A63BC
:1021E4007B687A691A6200BF1C37BD465DF8047BC0
:1021F400704700BF0000014080B487B000AF786032
:1022040039607B681B6A7B617B681B6A23F480727C
:102214007B681A627B685B683B617B68DB69FB6097
:10222400FB6823F07003FB60FB6823F00303FB608F
:102234003B681B68FA681343FB607B6923F40073F3
:102244007B613B689B681B027A6913437B617B68F3
:102254001D4A93420DD17B6923F400637B613B6883
:10226400DB681B027A6913437B617B6923F4806317
:102274007B617B68144A934213D13B6923F48053F6
:102284003B613B6923F400533B613B685B691B0181
:102294003A6913433B613B689B691B013A691343E9
:1022A4003B617B683A695A607B68FA68DA613B682B
:1022B4005A687B68DA637B687A691A6200BF1C37E4
:1022C400BD465DF8047B70470000014080B487B0D0
:1022D40000AF786039607B681B6A3B617B681B6A6E
:1022E40023F480527B681A627B685B687B617B683D
:1022F400DB69FB60FB6823F4E043FB60FB6823F4C9
:102304004073FB603B681B681B02FA681343FB6065
:102314003B6923F400533B613B689B681B033A69A8
:1023240013433B617B68104A934209D17B6923F4D0
:1023340080437B613B685B699B017A6913437B61E2
:102344007B687A695A607B68FA68DA613B685A6824
:102354007B681A647B683A691A6200BF1C37BD4601
:102364005DF8047B704700BF0000014080B487B073
:1023740000AFF860B9607A60FB681B6A7B61FB6838
:102384001B6A23F00102FB681A62FB689B693B61CC
:102394003B6923F0F0033B617B681B013A691343FB
:1023A4003B617B6923F00A037B617A69BB68134351
:1023B4007B61FB683A699A61FB687A691A6200BFBB
:1023C4001C37BD465DF8047B704780B487B000AF0E
:1023D400F860B9607A60FB681B6A7B61FB681B6A02
:1023E40023F01002FB681A62FB689B693B613B693E
:1023F40023F470433B617B681B033A6913433B61DD
:102404007B6923F0A0037B61BB681B017A691343DA
:102414007B61FB683A699A61FB687A691A6200BF5A
:102424001C37BD465DF8047B704780B485B000AFAF
:10243400786039607B689B68FB60FB6823F07003FD
:10244400FB603A68FB68134343F00703FB607B6857
:10245400FA689A6000BF1437BD465DF8047B704784
:1024640080B487B000AFF860B9607A603B60FB6805
:102474009B687B617B6923F47F437B613B681A0221
:102484007B681A43BB6813437A6913437B61FB6817
:102494007A699A6000BF1C37BD465DF8047B7047BB
:1024A40080B487B000AFF860B9607A60BB6803F0AD
:1024B4001F03012202FA03F37B61FB681A6A7B693A
:1024C400DB431A40FB681A62FB681A6ABB6803F0B4
:1024D4001F03796801FA03F31A43FB681A6200BF09
:1024E4001C37BD465DF8047B7047000080B485B09E
:1024F40000AF786039607B6893F83C30012B01D1E0
:10250400022350E07B68012283F83C207B6802228E
:1025140083F83D207B681B685B68FB607B681B68F5
:102524009B68BB60FB6823F07003FB603B681B681F
:10253400FA681343FB607B681B68FA685A607B681F
:102544001B681C4A934218D07B681B68B3F1804F08
:1025540013D07B681B68184A93420ED07B681B68B3
:10256400164A934209D07B681B68154A934204D0EB
:102574007B681B68134A93420CD1BB6823F0800329
:10258400BB603B685B68BA681343BB607B681B68CD
:10259400BA689A607B68012283F83D207B68002238
:1025A40083F83C20002318461437BD465DF8047BAD
:1025B400704700BF000001400004004000080040D4
:1025C400000C00400040014080B483B000AF78604C
:1025D40000BF0C37BD465DF8047B704780B483B000
:1025E40000AF786000BF0C37BD465DF8047B7047D0
:1025F40002440346934200D1704703F8011BF9E7F4
:1026040070B50D4D0D4C641BA4100026A64209D1D3
:102614000B4D0C4C00F018F8641BA4100026A642C5
:1026240005D170BD55F8043B98470136EEE755F8DF
:10263400043B98470136F2E77C2600087C26000814
:102644007C26000880260008F8B500BFF8BC08BC4A
:102654009E467047F8B500BFF8BC08BC9E4670475C
:10266400000000000000000001020304060708093E
:0826740090DBFF7F0100000074
:04267C00B901000898
:0426800095010008B8
:0C2684000024F400100000000100000021
:040000050800088D5A
:00000001FF
